{
  "contractName": "BasicToken",
  "abi": [
    {
      "anonymous": false,
      "inputs": [
        {
          "indexed": true,
          "internalType": "address",
          "name": "burner",
          "type": "address"
        },
        {
          "indexed": false,
          "internalType": "uint256",
          "name": "value",
          "type": "uint256"
        }
      ],
      "name": "Burn",
      "type": "event"
    },
    {
      "anonymous": false,
      "inputs": [
        {
          "indexed": true,
          "internalType": "address",
          "name": "from",
          "type": "address"
        },
        {
          "indexed": true,
          "internalType": "address",
          "name": "to",
          "type": "address"
        },
        {
          "indexed": false,
          "internalType": "uint256",
          "name": "value",
          "type": "uint256"
        }
      ],
      "name": "Transfer",
      "type": "event"
    },
    {
      "constant": true,
      "inputs": [],
      "name": "totalSupply",
      "outputs": [
        {
          "internalType": "uint256",
          "name": "",
          "type": "uint256"
        }
      ],
      "payable": false,
      "stateMutability": "view",
      "type": "function"
    },
    {
      "constant": true,
      "inputs": [],
      "name": "totalBurned",
      "outputs": [
        {
          "internalType": "uint256",
          "name": "",
          "type": "uint256"
        }
      ],
      "payable": false,
      "stateMutability": "view",
      "type": "function"
    },
    {
      "constant": false,
      "inputs": [
        {
          "internalType": "uint256",
          "name": "_value",
          "type": "uint256"
        }
      ],
      "name": "burn",
      "outputs": [
        {
          "internalType": "bool",
          "name": "",
          "type": "bool"
        }
      ],
      "payable": false,
      "stateMutability": "nonpayable",
      "type": "function"
    },
    {
      "constant": false,
      "inputs": [
        {
          "internalType": "address",
          "name": "_to",
          "type": "address"
        },
        {
          "internalType": "uint256",
          "name": "_value",
          "type": "uint256"
        }
      ],
      "name": "transfer",
      "outputs": [
        {
          "internalType": "bool",
          "name": "",
          "type": "bool"
        }
      ],
      "payable": false,
      "stateMutability": "nonpayable",
      "type": "function"
    },
    {
      "constant": true,
      "inputs": [
        {
          "internalType": "address",
          "name": "_owner",
          "type": "address"
        }
      ],
      "name": "balanceOf",
      "outputs": [
        {
          "internalType": "uint256",
          "name": "",
          "type": "uint256"
        }
      ],
      "payable": false,
      "stateMutability": "view",
      "type": "function"
    }
  ],
  "bytecode": "0x608060405234801561001057600080fd5b506105fa806100206000396000f3fe608060405234801561001057600080fd5b50600436106100575760003560e01c806318160ddd1461005c57806342966c681461007a57806370a08231146100c0578063a9059cbb14610118578063d89135cd1461017e575b600080fd5b61006461019c565b6040518082815260200191505060405180910390f35b6100a66004803603602081101561009057600080fd5b81019080803590602001909291905050506101a6565b604051808215151515815260200191505060405180910390f35b610102600480360360208110156100d657600080fd5b81019080803573ffffffffffffffffffffffffffffffffffffffff169060200190929190505050610319565b6040518082815260200191505060405180910390f35b6101646004803603604081101561012e57600080fd5b81019080803573ffffffffffffffffffffffffffffffffffffffff16906020019092919080359060200190929190505050610361565b604051808215151515815260200191505060405180910390f35b610186610588565b6040518082815260200191505060405180910390f35b6000600154905090565b60008060003373ffffffffffffffffffffffffffffffffffffffff1673ffffffffffffffffffffffffffffffffffffffff168152602001908152602001600020548211156101f357600080fd5b6000339050610249836000808473ffffffffffffffffffffffffffffffffffffffff1673ffffffffffffffffffffffffffffffffffffffff1681526020019081526020016000205461059290919063ffffffff16565b6000808373ffffffffffffffffffffffffffffffffffffffff1673ffffffffffffffffffffffffffffffffffffffff168152602001908152602001600020819055506102a08360015461059290919063ffffffff16565b6001819055506102bb836002546105a990919063ffffffff16565b6002819055508073ffffffffffffffffffffffffffffffffffffffff167fcc16f5dbb4873280815c1ee09dbd06736cffcc184412cf7a71a0fdb75d397ca5846040518082815260200191505060405180910390a26001915050919050565b60008060008373ffffffffffffffffffffffffffffffffffffffff1673ffffffffffffffffffffffffffffffffffffffff168152602001908152602001600020549050919050565b60008073ffffffffffffffffffffffffffffffffffffffff168373ffffffffffffffffffffffffffffffffffffffff1614156103a7576103a0826101a6565b9050610582565b6000803373ffffffffffffffffffffffffffffffffffffffff1673ffffffffffffffffffffffffffffffffffffffff168152602001908152602001600020548211156103f257600080fd5b610443826000803373ffffffffffffffffffffffffffffffffffffffff1673ffffffffffffffffffffffffffffffffffffffff1681526020019081526020016000205461059290919063ffffffff16565b6000803373ffffffffffffffffffffffffffffffffffffffff1673ffffffffffffffffffffffffffffffffffffffff168152602001908152602001600020819055506104d6826000808673ffffffffffffffffffffffffffffffffffffffff1673ffffffffffffffffffffffffffffffffffffffff168152602001908152602001600020546105a990919063ffffffff16565b6000808573ffffffffffffffffffffffffffffffffffffffff1673ffffffffffffffffffffffffffffffffffffffff168152602001908152602001600020819055508273ffffffffffffffffffffffffffffffffffffffff163373ffffffffffffffffffffffffffffffffffffffff167fddf252ad1be2c89b69c2b068fc378daa952ba7f163c4a11628f55a4df523b3ef846040518082815260200191505060405180910390a3600190505b92915050565b6000600254905090565b60008282111561059e57fe5b818303905092915050565b6000808284019050838110156105bb57fe5b809150509291505056fea265627a7a723158203dfda4767bb91c21fa53ec5abb7c87ca6a8f29a7b88b29e116c6dbec2948c31864736f6c63430005100032",
  "source": "/**\r\n *Submitted for verification at Etherscan.io on 2019-04-09\r\n*/\r\n\r\n//ORIGINAL:  pragma solidity 0.5.7;\r\npragma solidity >=0.5.7;\r\n\r\n/**\r\n * @title ERC20Basic\r\n * @dev Simpler version of ERC20 interface\r\n * @dev see https://github.com/ethereum/EIPs/issues/179\r\n */\r\ncontract ERC20Basic {\r\n    function totalSupply() public view returns (uint256);\r\n    function balanceOf(address who) public view returns (uint256);\r\n    function transfer(address to, uint256 value) public returns (bool);\r\n    event Transfer(address indexed from, address indexed to, uint256 value);\r\n    event Burn(address indexed burner, uint256 value);\r\n}\r\n/**\r\n * @title SafeMath\r\n * @dev Math operations with safety checks that throw on error\r\n */\r\nlibrary SafeMath {\r\n    /**\r\n     * @dev Multiplies two numbers, throws on overflow.\r\n     */\r\n    function mul(uint256 a, uint256 b) internal pure returns (uint256) {\r\n        if (a == 0) {\r\n            return 0;\r\n        }\r\n        uint256 c = a * b;\r\n        assert(c / a == b);\r\n        return c;\r\n    }\r\n    /**\r\n     * @dev Integer division of two numbers, truncating the quotient.\r\n     */\r\n    function div(uint256 a, uint256 b) internal pure returns (uint256) {\r\n        // assert(b > 0); // Solidity automatically throws when dividing by 0\r\n        uint256 c = a / b;\r\n        // assert(a == b * c + a % b); // There is no case in which this doesn't hold\r\n        return c;\r\n    }\r\n    /**\r\n     * @dev Subtracts two numbers, throws on overflow (i.e. if subtrahend is greater than minuend).\r\n     */\r\n    function sub(uint256 a, uint256 b) internal pure returns (uint256) {\r\n        assert(b <= a);\r\n        return a - b;\r\n    }\r\n    /**\r\n     * @dev Adds two numbers, throws on overflow.\r\n     */\r\n    function add(uint256 a, uint256 b) internal pure returns (uint256) {\r\n        uint256 c = a + b;\r\n        assert(c >= a);\r\n        return c;\r\n    }\r\n}\r\n/**\r\n * @title Basic token\r\n * @dev Basic version of StandardToken, with no allowances.\r\n */\r\ncontract BasicToken is ERC20Basic {\r\n    using SafeMath for uint256;\r\n    mapping(address => uint256) balances;\r\n    uint256 totalSupply_;\r\n    uint256 burnedTotalNum_;\r\n\r\n    /**\r\n     * @dev total number of tokens in existence\r\n     */\r\n    function totalSupply() public view returns (uint256) {\r\n        return totalSupply_;\r\n    }\r\n\r\n    /**\r\n     * @dev total number of tokens already burned\r\n     */\r\n    function totalBurned() public view returns (uint256) {\r\n        return burnedTotalNum_;\r\n    }\r\n\r\n    function burn(uint256 _value) public returns (bool) {\r\n        require(_value <= balances[msg.sender]);\r\n\r\n        address burner = msg.sender;\r\n        balances[burner] = balances[burner].sub(_value);\r\n        totalSupply_ = totalSupply_.sub(_value);\r\n        burnedTotalNum_ = burnedTotalNum_.add(_value);\r\n\r\n        emit Burn(burner, _value);\r\n        return true;\r\n    }\r\n\r\n    /**\r\n     * @dev transfer token for a specified address\r\n     * @param _to The address to transfer to.\r\n     * @param _value The amount to be transferred.\r\n     */\r\n    function transfer(address _to, uint256 _value) public returns (bool) {\r\n        // if _to is address(0), invoke burn function.\r\n        if (_to == address(0)) {\r\n            return burn(_value);\r\n        }\r\n\r\n        require(_value <= balances[msg.sender]);\r\n        // SafeMath.sub will throw if there is not enough balance.\r\n        balances[msg.sender] = balances[msg.sender].sub(_value);\r\n        balances[_to] = balances[_to].add(_value);\r\n        emit Transfer(msg.sender, _to, _value);\r\n        return true;\r\n    }\r\n    /**\r\n     * @dev Gets the balance of the specified address.\r\n     * @param _owner The address to query the the balance of.\r\n     * @return An uint256 representing the amount owned by the passed address.\r\n     */\r\n    function balanceOf(address _owner) public view returns (uint256) {\r\n        return balances[_owner];\r\n    }\r\n}\r\n/**\r\n * @title ERC20 interface\r\n * @dev see https://github.com/ethereum/EIPs/issues/20\r\n */\r\ncontract ERC20 is ERC20Basic {\r\n    function allowance(address owner, address spender)\r\n        public\r\n        view\r\n        returns (uint256);\r\n    function transferFrom(address from, address to, uint256 value)\r\n        public\r\n        returns (bool);\r\n    function approve(address spender, uint256 value) public returns (bool);\r\n    event Approval(\r\n        address indexed owner,\r\n        address indexed spender,\r\n        uint256 value\r\n    );\r\n}\r\n/**\r\n * @title Standard ERC20 token\r\n *\r\n * @dev Implementation of the basic standard token.\r\n * @dev https://github.com/ethereum/EIPs/issues/20\r\n * @dev Based on code by FirstBlood: https://github.com/Firstbloodio/token/blob/master/smart_contract/FirstBloodToken.sol\r\n */\r\ncontract StandardToken is ERC20, BasicToken {\r\n    uint256 private constant MAX_UINT = 2**256 - 1;\r\n\r\n    mapping(address => mapping(address => uint256)) internal allowed;\r\n\r\n    function burnFrom(address _owner, uint256 _value) public returns (bool) {\r\n        require(_owner != address(0));\r\n        require(_value <= balances[_owner]);\r\n        require(_value <= allowed[_owner][msg.sender]);\r\n\r\n        balances[_owner] = balances[_owner].sub(_value);\r\n        if (allowed[_owner][msg.sender] < MAX_UINT) {\r\n            allowed[_owner][msg.sender] = allowed[_owner][msg.sender].sub(\r\n                _value\r\n            );\r\n        }\r\n        totalSupply_ = totalSupply_.sub(_value);\r\n        burnedTotalNum_ = burnedTotalNum_.add(_value);\r\n\r\n        emit Burn(_owner, _value);\r\n        return true;\r\n    }\r\n\r\n    /**\r\n     * @dev Transfer tokens from one address to another\r\n     * @param _from address The address which you want to send tokens from\r\n     * @param _to address The address which you want to transfer to\r\n     * @param _value uint256 the amount of tokens to be transferred\r\n     */\r\n    function transferFrom(address _from, address _to, uint256 _value)\r\n        public\r\n        returns (bool)\r\n    {\r\n        if (_to == address(0)) {\r\n            return burnFrom(_from, _value);\r\n        }\r\n\r\n        require(_value <= balances[_from]);\r\n        require(_value <= allowed[_from][msg.sender]);\r\n        balances[_from] = balances[_from].sub(_value);\r\n        balances[_to] = balances[_to].add(_value);\r\n\r\n        /// an allowance of MAX_UINT represents an unlimited allowance.\r\n        /// @dev see https://github.com/ethereum/EIPs/issues/717\r\n        if (allowed[_from][msg.sender] < MAX_UINT) {\r\n            allowed[_from][msg.sender] = allowed[_from][msg.sender].sub(_value);\r\n        }\r\n        emit Transfer(_from, _to, _value);\r\n        return true;\r\n    }\r\n    /**\r\n     * @dev Approve the passed address to spend the specified amount of tokens on behalf of msg.sender.\r\n     *\r\n     * Beware that changing an allowance with this method brings the risk that someone may use both the old\r\n     * and the new allowance by unfortunate transaction ordering. One possible solution to mitigate this\r\n     * race condition is to first reduce the spender's allowance to 0 and set the desired value afterwards:\r\n     * https://github.com/ethereum/EIPs/issues/20#issuecomment-263524729\r\n     * @param _spender The address which will spend the funds.\r\n     * @param _value The amount of tokens to be spent.\r\n     */\r\n    function approve(address _spender, uint256 _value) public returns (bool) {\r\n        allowed[msg.sender][_spender] = _value;\r\n        emit Approval(msg.sender, _spender, _value);\r\n        return true;\r\n    }\r\n    /**\r\n     * @dev Function to check the amount of tokens that an owner allowed to a spender.\r\n     * @param _owner address The address which owns the funds.\r\n     * @param _spender address The address which will spend the funds.\r\n     * @return A uint256 specifying the amount of tokens still available for the spender.\r\n     */\r\n    function allowance(address _owner, address _spender)\r\n        public\r\n        view\r\n        returns (uint256)\r\n    {\r\n        return allowed[_owner][_spender];\r\n    }\r\n    /**\r\n     * @dev Increase the amount of tokens that an owner allowed to a spender.\r\n     *\r\n     * approve should be called when allowed[_spender] == 0. To increment\r\n     * allowed value is better to use this function to avoid 2 calls (and wait until\r\n     * the first transaction is mined)\r\n     * From MonolithDAO Token.sol\r\n     * @param _spender The address which will spend the funds.\r\n     * @param _addedValue The amount of tokens to increase the allowance by.\r\n     */\r\n    function increaseApproval(address _spender, uint256 _addedValue)\r\n        public\r\n        returns (bool)\r\n    {\r\n        allowed[msg.sender][_spender] = allowed[msg.sender][_spender].add(\r\n            _addedValue\r\n        );\r\n        emit Approval(msg.sender, _spender, allowed[msg.sender][_spender]);\r\n        return true;\r\n    }\r\n    /**\r\n     * @dev Decrease the amount of tokens that an owner allowed to a spender.\r\n     *\r\n     * approve should be called when allowed[_spender] == 0. To decrement\r\n     * allowed value is better to use this function to avoid 2 calls (and wait until\r\n     * the first transaction is mined)\r\n     * From MonolithDAO Token.sol\r\n     * @param _spender The address which will spend the funds.\r\n     * @param _subtractedValue The amount of tokens to decrease the allowance by.\r\n     */\r\n    function decreaseApproval(address _spender, uint256 _subtractedValue)\r\n        public\r\n        returns (bool)\r\n    {\r\n        uint256 oldValue = allowed[msg.sender][_spender];\r\n        if (_subtractedValue > oldValue) {\r\n            allowed[msg.sender][_spender] = 0;\r\n        } else {\r\n            allowed[msg.sender][_spender] = oldValue.sub(_subtractedValue);\r\n        }\r\n        emit Approval(msg.sender, _spender, allowed[msg.sender][_spender]);\r\n        return true;\r\n    }\r\n}\r\n\r\ncontract LRC_v2 is StandardToken {\r\n    using SafeMath for uint256;\r\n\r\n    string public name = \"LoopringCoin V2\";\r\n    string public symbol = \"LRC\";\r\n    uint8 public decimals = 18;\r\n\r\n    constructor() public {\r\n        // @See https://etherscan.io/address/0xEF68e7C694F40c8202821eDF525dE3782458639f#readContract\r\n        totalSupply_ = 1395076054523857892274603100;\r\n\r\n        balances[msg.sender] = totalSupply_;\r\n    }\r\n\r\n    function batchTransfer(\r\n        address[] calldata accounts,\r\n        uint256[] calldata amounts\r\n    ) external returns (bool) {\r\n        require(accounts.length == amounts.length);\r\n        for (uint256 i = 0; i < accounts.length; i++) {\r\n            require(transfer(accounts[i], amounts[i]), \"transfer failed\");\r\n        }\r\n        return true;\r\n    }\r\n\r\n    function() external payable {\r\n        revert();\r\n    }\r\n\r\n}\r\n",
  "sourcePath": "C:\\Users\\aciur\\Documents\\Projects\\ethereum\\loopring-staking\\eth\\contracts\\Loopring_LRC_v2.sol",
  "compiler": {
    "name": "solc",
    "version": "0.5.16+commit.9c3226ce.Emscripten.clang"
  },
  "schemaVersion": "3.0.23",
  "updatedAt": "2020-04-20T08:39:06.123Z",
  "devdoc": {
    "details": "Basic version of StandardToken, with no allowances.",
    "methods": {
      "balanceOf(address)": {
        "details": "Gets the balance of the specified address.",
        "params": {
          "_owner": "The address to query the the balance of."
        },
        "return": "An uint256 representing the amount owned by the passed address."
      },
      "totalBurned()": {
        "details": "total number of tokens already burned"
      },
      "totalSupply()": {
        "details": "total number of tokens in existence"
      },
      "transfer(address,uint256)": {
        "details": "transfer token for a specified address",
        "params": {
          "_to": "The address to transfer to.",
          "_value": "The amount to be transferred."
        }
      }
    },
    "title": "Basic token"
  },
  "userdoc": {
    "methods": {}
  }
}