{
  "contractName": "Claimable",
  "abi": [
    {
      "anonymous": false,
      "inputs": [
        {
          "indexed": true,
          "internalType": "address",
          "name": "previousOwner",
          "type": "address"
        },
        {
          "indexed": true,
          "internalType": "address",
          "name": "newOwner",
          "type": "address"
        }
      ],
      "name": "OwnershipTransferred",
      "type": "event"
    },
    {
      "constant": true,
      "inputs": [],
      "name": "owner",
      "outputs": [
        {
          "internalType": "address",
          "name": "",
          "type": "address"
        }
      ],
      "payable": false,
      "stateMutability": "view",
      "type": "function"
    },
    {
      "constant": true,
      "inputs": [],
      "name": "pendingOwner",
      "outputs": [
        {
          "internalType": "address",
          "name": "",
          "type": "address"
        }
      ],
      "payable": false,
      "stateMutability": "view",
      "type": "function"
    },
    {
      "constant": false,
      "inputs": [],
      "name": "renounceOwnership",
      "outputs": [],
      "payable": false,
      "stateMutability": "nonpayable",
      "type": "function"
    },
    {
      "constant": false,
      "inputs": [
        {
          "internalType": "address",
          "name": "newOwner",
          "type": "address"
        }
      ],
      "name": "transferOwnership",
      "outputs": [],
      "payable": false,
      "stateMutability": "nonpayable",
      "type": "function"
    },
    {
      "constant": false,
      "inputs": [],
      "name": "claimOwnership",
      "outputs": [],
      "payable": false,
      "stateMutability": "nonpayable",
      "type": "function"
    }
  ],
  "bytecode": "0x6080604052336000806101000a81548173ffffffffffffffffffffffffffffffffffffffff021916908373ffffffffffffffffffffffffffffffffffffffff160217905550610751806100536000396000f3fe608060405234801561001057600080fd5b50600436106100575760003560e01c80634e71e0c81461005c578063715018a6146100665780638da5cb5b14610070578063e30c3978146100ba578063f2fde38b14610104575b600080fd5b610064610148565b005b61006e61034e565b005b6100786104cf565b604051808273ffffffffffffffffffffffffffffffffffffffff1673ffffffffffffffffffffffffffffffffffffffff16815260200191505060405180910390f35b6100c26104f4565b604051808273ffffffffffffffffffffffffffffffffffffffff1673ffffffffffffffffffffffffffffffffffffffff16815260200191505060405180910390f35b6101466004803603602081101561011a57600080fd5b81019080803573ffffffffffffffffffffffffffffffffffffffff16906020019092919050505061051a565b005b600160009054906101000a900473ffffffffffffffffffffffffffffffffffffffff1673ffffffffffffffffffffffffffffffffffffffff163373ffffffffffffffffffffffffffffffffffffffff161461020b576040517f08c379a000000000000000000000000000000000000000000000000000000000815260040180806020018281038252600c8152602001807f554e415554484f52495a4544000000000000000000000000000000000000000081525060200191505060405180910390fd5b600160009054906101000a900473ffffffffffffffffffffffffffffffffffffffff1673ffffffffffffffffffffffffffffffffffffffff166000809054906101000a900473ffffffffffffffffffffffffffffffffffffffff1673ffffffffffffffffffffffffffffffffffffffff167f8be0079c531659141344cd1fd0a4f28419497f9722a3daafe3b4186f6b6457e060405160405180910390a3600160009054906101000a900473ffffffffffffffffffffffffffffffffffffffff166000806101000a81548173ffffffffffffffffffffffffffffffffffffffff021916908373ffffffffffffffffffffffffffffffffffffffff1602179055506000600160006101000a81548173ffffffffffffffffffffffffffffffffffffffff021916908373ffffffffffffffffffffffffffffffffffffffff160217905550565b6000809054906101000a900473ffffffffffffffffffffffffffffffffffffffff1673ffffffffffffffffffffffffffffffffffffffff163373ffffffffffffffffffffffffffffffffffffffff1614610410576040517f08c379a000000000000000000000000000000000000000000000000000000000815260040180806020018281038252600c8152602001807f554e415554484f52495a4544000000000000000000000000000000000000000081525060200191505060405180910390fd5b600073ffffffffffffffffffffffffffffffffffffffff166000809054906101000a900473ffffffffffffffffffffffffffffffffffffffff1673ffffffffffffffffffffffffffffffffffffffff167f8be0079c531659141344cd1fd0a4f28419497f9722a3daafe3b4186f6b6457e060405160405180910390a360008060006101000a81548173ffffffffffffffffffffffffffffffffffffffff021916908373ffffffffffffffffffffffffffffffffffffffff160217905550565b6000809054906101000a900473ffffffffffffffffffffffffffffffffffffffff1681565b600160009054906101000a900473ffffffffffffffffffffffffffffffffffffffff1681565b6000809054906101000a900473ffffffffffffffffffffffffffffffffffffffff1673ffffffffffffffffffffffffffffffffffffffff163373ffffffffffffffffffffffffffffffffffffffff16146105dc576040517f08c379a000000000000000000000000000000000000000000000000000000000815260040180806020018281038252600c8152602001807f554e415554484f52495a4544000000000000000000000000000000000000000081525060200191505060405180910390fd5b600073ffffffffffffffffffffffffffffffffffffffff168173ffffffffffffffffffffffffffffffffffffffff161415801561066657506000809054906101000a900473ffffffffffffffffffffffffffffffffffffffff1673ffffffffffffffffffffffffffffffffffffffff168173ffffffffffffffffffffffffffffffffffffffff1614155b6106d8576040517f08c379a000000000000000000000000000000000000000000000000000000000815260040180806020018281038252600f8152602001807f494e56414c49445f41444452455353000000000000000000000000000000000081525060200191505060405180910390fd5b80600160006101000a81548173ffffffffffffffffffffffffffffffffffffffff021916908373ffffffffffffffffffffffffffffffffffffffff1602179055505056fea265627a7a7231582021166ca91e982f10cba58ed7e9d94776b9fc7c085777ecfe63456e50e7f0cafd64736f6c63430005100032",
  "source": "/**\r\n *Submitted for verification at Etherscan.io on 2019-11-20\r\n*/\r\n\r\n/**\r\nAuthor: Loopring Foundation (Loopring Project Ltd)\r\n*/\r\npragma solidity ^0.5.11;\r\n\r\ncontract Ownable {\r\n    address public owner;\r\n\r\n    event OwnershipTransferred(\r\n        address indexed previousOwner,\r\n        address indexed newOwner\r\n    );\r\n\r\n    constructor() public {\r\n        owner = msg.sender;\r\n    }\r\n\r\n    modifier onlyOwner() {\r\n        require(msg.sender == owner, \"UNAUTHORIZED\");\r\n        _;\r\n    }\r\n\r\n    function transferOwnership(address newOwner) public onlyOwner {\r\n        require(newOwner != address(0), \"ZERO_ADDRESS\");\r\n        emit OwnershipTransferred(owner, newOwner);\r\n        owner = newOwner;\r\n    }\r\n\r\n    function renounceOwnership() public onlyOwner {\r\n        emit OwnershipTransferred(owner, address(0));\r\n        owner = address(0);\r\n    }\r\n}\r\n\r\ncontract Claimable is Ownable {\r\n    address public pendingOwner;\r\n\r\n    modifier onlyPendingOwner() {\r\n        require(msg.sender == pendingOwner, \"UNAUTHORIZED\");\r\n        _;\r\n    }\r\n\r\n    function transferOwnership(address newOwner) public onlyOwner {\r\n        require(newOwner != address(0) && newOwner != owner, \"INVALID_ADDRESS\");\r\n        pendingOwner = newOwner;\r\n    }\r\n\r\n    function claimOwnership() public onlyPendingOwner {\r\n        emit OwnershipTransferred(owner, pendingOwner);\r\n        owner = pendingOwner;\r\n        pendingOwner = address(0);\r\n    }\r\n}\r\n\r\ncontract ERC20 {\r\n    function totalSupply() public view returns (uint256);\r\n\r\n    function balanceOf(address who) public view returns (uint256);\r\n\r\n    function allowance(address owner, address spender)\r\n        public\r\n        view\r\n        returns (uint256);\r\n\r\n    function transfer(address to, uint256 value) public returns (bool);\r\n\r\n    function transferFrom(address from, address to, uint256 value)\r\n        public\r\n        returns (bool);\r\n\r\n    function approve(address spender, uint256 value) public returns (bool);\r\n}\r\n\r\nlibrary ERC20SafeTransfer {\r\n    function safeTransferAndVerify(address token, address to, uint256 value)\r\n        internal\r\n    {\r\n        safeTransferWithGasLimitAndVerify(token, to, value, gasleft());\r\n    }\r\n\r\n    function safeTransfer(address token, address to, uint256 value)\r\n        internal\r\n        returns (bool)\r\n    {\r\n        return safeTransferWithGasLimit(token, to, value, gasleft());\r\n    }\r\n\r\n    function safeTransferWithGasLimitAndVerify(\r\n        address token,\r\n        address to,\r\n        uint256 value,\r\n        uint256 gasLimit\r\n    ) internal {\r\n        require(\r\n            safeTransferWithGasLimit(token, to, value, gasLimit),\r\n            \"TRANSFER_FAILURE\"\r\n        );\r\n    }\r\n\r\n    function safeTransferWithGasLimit(\r\n        address token,\r\n        address to,\r\n        uint256 value,\r\n        uint256 gasLimit\r\n    ) internal returns (bool) {\r\n        bytes memory callData = abi.encodeWithSelector(\r\n            bytes4(0xa9059cbb),\r\n            to,\r\n            value\r\n        );\r\n        (bool success, ) = token.call.gas(gasLimit)(callData);\r\n        return checkReturnValue(success);\r\n    }\r\n\r\n    function safeTransferFromAndVerify(\r\n        address token,\r\n        address from,\r\n        address to,\r\n        uint256 value\r\n    ) internal {\r\n        safeTransferFromWithGasLimitAndVerify(\r\n            token,\r\n            from,\r\n            to,\r\n            value,\r\n            gasleft()\r\n        );\r\n    }\r\n\r\n    function safeTransferFrom(\r\n        address token,\r\n        address from,\r\n        address to,\r\n        uint256 value\r\n    ) internal returns (bool) {\r\n        return safeTransferFromWithGasLimit(token, from, to, value, gasleft());\r\n    }\r\n\r\n    function safeTransferFromWithGasLimitAndVerify(\r\n        address token,\r\n        address from,\r\n        address to,\r\n        uint256 value,\r\n        uint256 gasLimit\r\n    ) internal {\r\n        bool result = safeTransferFromWithGasLimit(\r\n            token,\r\n            from,\r\n            to,\r\n            value,\r\n            gasLimit\r\n        );\r\n        require(result, \"TRANSFER_FAILURE\");\r\n    }\r\n\r\n    function safeTransferFromWithGasLimit(\r\n        address token,\r\n        address from,\r\n        address to,\r\n        uint256 value,\r\n        uint256 gasLimit\r\n    ) internal returns (bool) {\r\n        bytes memory callData = abi.encodeWithSelector(\r\n            bytes4(0x23b872dd),\r\n            from,\r\n            to,\r\n            value\r\n        );\r\n        (bool success, ) = token.call.gas(gasLimit)(callData);\r\n        return checkReturnValue(success);\r\n    }\r\n\r\n    function checkReturnValue(bool success) internal pure returns (bool) {\r\n        if (success) {\r\n            assembly {\r\n                switch returndatasize\r\n                    case 0 {\r\n                        success := 1\r\n                    }\r\n                    case 32 {\r\n                        returndatacopy(0, 0, 32)\r\n                        success := mload(0)\r\n                    }\r\n                    default {\r\n                        success := 0\r\n                    }\r\n            }\r\n        }\r\n        return success;\r\n    }\r\n}\r\n\r\nlibrary MathUint {\r\n    function mul(uint256 a, uint256 b) internal pure returns (uint256 c) {\r\n        c = a * b;\r\n        require(a == 0 || c / a == b, \"MUL_OVERFLOW\");\r\n    }\r\n\r\n    function sub(uint256 a, uint256 b) internal pure returns (uint256) {\r\n        require(b <= a, \"SUB_UNDERFLOW\");\r\n        return a - b;\r\n    }\r\n\r\n    function add(uint256 a, uint256 b) internal pure returns (uint256 c) {\r\n        c = a + b;\r\n        require(c >= a, \"ADD_OVERFLOW\");\r\n    }\r\n\r\n    function decodeFloat(uint256 f) internal pure returns (uint256 value) {\r\n        uint256 numBitsMantissa = 23;\r\n        uint256 exponent = f >> numBitsMantissa;\r\n        uint256 mantissa = f & ((1 << numBitsMantissa) - 1);\r\n        value = mantissa * (10**exponent);\r\n    }\r\n}\r\n\r\ncontract ReentrancyGuard {\r\n    uint256 private _guardValue;\r\n\r\n    modifier nonReentrant() {\r\n        require(_guardValue == 0, \"REENTRANCY\");\r\n\r\n        _guardValue = 1;\r\n\r\n        _;\r\n\r\n        _guardValue = 0;\r\n    }\r\n}\r\n\r\ncontract IProtocolFeeVault {\r\n    uint256 public constant REWARD_PERCENTAGE = 70;\r\n    uint256 public constant DAO_PERDENTAGE = 20;\r\n\r\n    address public userStakingPoolAddress;\r\n    address public lrcAddress;\r\n    address public tokenSellerAddress;\r\n    address public daoAddress;\r\n\r\n    uint256 claimedReward;\r\n    uint256 claimedDAOFund;\r\n    uint256 claimedBurn;\r\n\r\n    event LRCClaimed(uint256 amount);\r\n    event DAOFunded(uint256 amountDAO, uint256 amountBurn);\r\n    event TokenSold(address token, uint256 amount);\r\n    event SettingsUpdated(uint256 time);\r\n\r\n    function updateSettings(\r\n        address _userStakingPoolAddress,\r\n        address _tokenSellerAddress,\r\n        address _daoAddress\r\n    ) external;\r\n\r\n    function claimStakingReward(uint256 amount) external;\r\n\r\n    function fundDAO() external;\r\n\r\n    function sellTokenForLRC(address token, uint256 amount) external;\r\n\r\n    function getProtocolFeeStats()\r\n        public\r\n        view\r\n        returns (\r\n            uint256 accumulatedFees,\r\n            uint256 accumulatedBurn,\r\n            uint256 accumulatedDAOFund,\r\n            uint256 accumulatedReward,\r\n            uint256 remainingFees,\r\n            uint256 remainingBurn,\r\n            uint256 remainingDAOFund,\r\n            uint256 remainingReward\r\n        );\r\n}\r\n\r\ncontract IUserStakingPool {\r\n    uint256 public constant MIN_CLAIM_DELAY = 90 days;\r\n    uint256 public constant MIN_WITHDRAW_DELAY = 90 days;\r\n\r\n    address public lrcAddress;\r\n    address public protocolFeeVaultAddress;\r\n\r\n    uint256 public numAddresses;\r\n\r\n    event ProtocolFeeVaultChanged(address feeVaultAddress);\r\n\r\n    event LRCStaked(address indexed user, uint256 amount);\r\n    event LRCWithdrawn(address indexed user, uint256 amount);\r\n    event LRCRewarded(address indexed user, uint256 amount);\r\n\r\n    function setProtocolFeeVault(address _protocolFeeVaultAddress) external;\r\n\r\n    function getTotalStaking() public view returns (uint256);\r\n\r\n    function getUserStaking(address user)\r\n        public\r\n        view\r\n        returns (\r\n            uint256 withdrawalWaitTime,\r\n            uint256 rewardWaitTime,\r\n            uint256 balance,\r\n            uint256 pendingReward\r\n        );\r\n\r\n    function stake(uint256 amount) external;\r\n\r\n    function withdraw(uint256 amount) external;\r\n\r\n    function claim() external returns (uint256 claimedAmount);\r\n}\r\n\r\ncontract UserStakingPool is Claimable, ReentrancyGuard, IUserStakingPool {\r\n    using ERC20SafeTransfer for address;\r\n    using MathUint for uint256;\r\n\r\n    struct Staking {\r\n        uint256 balance;\r\n        uint64 depositedAt;\r\n        uint64 claimedAt;\r\n    }\r\n\r\n    Staking public total;\r\n    mapping(address => Staking) public stakings;\r\n\r\n    constructor(address _lrcAddress) public Claimable() {\r\n        require(_lrcAddress != address(0), \"ZERO_ADDRESS\");\r\n        lrcAddress = _lrcAddress;\r\n    }\r\n\r\n    function setProtocolFeeVault(address _protocolFeeVaultAddress)\r\n        external\r\n        nonReentrant\r\n        onlyOwner\r\n    {\r\n        protocolFeeVaultAddress = _protocolFeeVaultAddress;\r\n        emit ProtocolFeeVaultChanged(protocolFeeVaultAddress);\r\n    }\r\n\r\n    function getTotalStaking() public view returns (uint256) {\r\n        return total.balance;\r\n    }\r\n\r\n    function getUserStaking(address user)\r\n        public\r\n        view\r\n        returns (\r\n            uint256 withdrawalWaitTime,\r\n            uint256 rewardWaitTime,\r\n            uint256 balance,\r\n            uint256 pendingReward\r\n        )\r\n    {\r\n        withdrawalWaitTime = getUserWithdrawalWaitTime(user);\r\n        rewardWaitTime = getUserClaimWaitTime(user);\r\n        balance = stakings[user].balance;\r\n        (, , pendingReward) = getUserPendingReward(user);\r\n    }\r\n\r\n    function stake(uint256 amount) external nonReentrant {\r\n        require(amount > 0, \"ZERO_VALUE\");\r\n\r\n        lrcAddress.safeTransferFromAndVerify(msg.sender, address(this), amount);\r\n\r\n        Staking storage user = stakings[msg.sender];\r\n\r\n        if (user.balance == 0) {\r\n            numAddresses += 1;\r\n        }\r\n\r\n        uint256 balance = user.balance.add(amount);\r\n\r\n        user.depositedAt = uint64(\r\n            user.balance.mul(user.depositedAt).add(amount.mul(now)) / balance\r\n        );\r\n\r\n        user.claimedAt = uint64(\r\n            user.balance.mul(user.claimedAt).add(amount.mul(now)) / balance\r\n        );\r\n\r\n        user.balance = balance;\r\n\r\n        balance = total.balance.add(amount);\r\n\r\n        total.claimedAt = uint64(\r\n            total.balance.mul(total.claimedAt).add(amount.mul(now)) / balance\r\n        );\r\n\r\n        total.balance = balance;\r\n\r\n        emit LRCStaked(msg.sender, amount);\r\n    }\r\n\r\n    function withdraw(uint256 amount) external nonReentrant {\r\n        require(getUserWithdrawalWaitTime(msg.sender) == 0, \"NEED_TO_WAIT\");\r\n\r\n        if (\r\n            protocolFeeVaultAddress != address(0) &&\r\n            getUserClaimWaitTime(msg.sender) == 0\r\n        ) {\r\n            claimReward();\r\n        }\r\n\r\n        Staking storage user = stakings[msg.sender];\r\n\r\n        uint256 _amount = (amount == 0 || amount > user.balance)\r\n            ? user.balance\r\n            : amount;\r\n        require(_amount > 0, \"ZERO_BALANCE\");\r\n\r\n        total.balance = total.balance.sub(_amount);\r\n        user.balance = user.balance.sub(_amount);\r\n\r\n        if (user.balance == 0) {\r\n            numAddresses -= 1;\r\n            delete stakings[msg.sender];\r\n        }\r\n\r\n        lrcAddress.safeTransferAndVerify(msg.sender, _amount);\r\n\r\n        emit LRCWithdrawn(msg.sender, _amount);\r\n    }\r\n\r\n    function claim() external nonReentrant returns (uint256 claimedAmount) {\r\n        return claimReward();\r\n    }\r\n\r\n    function claimReward() private returns (uint256 claimedAmount) {\r\n        require(protocolFeeVaultAddress != address(0), \"ZERO_ADDRESS\");\r\n        require(getUserClaimWaitTime(msg.sender) == 0, \"NEED_TO_WAIT\");\r\n\r\n        uint256 totalPoints;\r\n        uint256 userPoints;\r\n\r\n        (totalPoints, userPoints, claimedAmount) = getUserPendingReward(\r\n            msg.sender\r\n        );\r\n\r\n        if (claimedAmount > 0) {\r\n            IProtocolFeeVault(protocolFeeVaultAddress).claimStakingReward(\r\n                claimedAmount\r\n            );\r\n\r\n            total.balance = total.balance.add(claimedAmount);\r\n\r\n            total.claimedAt = uint64(\r\n                now.sub(totalPoints.sub(userPoints) / total.balance)\r\n            );\r\n\r\n            Staking storage user = stakings[msg.sender];\r\n            user.balance = user.balance.add(claimedAmount);\r\n            user.claimedAt = uint64(now);\r\n        }\r\n        emit LRCRewarded(msg.sender, claimedAmount);\r\n    }\r\n\r\n    function getUserWithdrawalWaitTime(address user)\r\n        private\r\n        view\r\n        returns (uint256)\r\n    {\r\n        uint256 depositedAt = stakings[user].depositedAt;\r\n        if (depositedAt == 0) {\r\n            return MIN_WITHDRAW_DELAY;\r\n        } else {\r\n            uint256 time = depositedAt + MIN_WITHDRAW_DELAY;\r\n            return (time <= now) ? 0 : time.sub(now);\r\n        }\r\n    }\r\n\r\n    function getUserClaimWaitTime(address user) private view returns (uint256) {\r\n        uint256 claimedAt = stakings[user].claimedAt;\r\n        if (claimedAt == 0) {\r\n            return MIN_CLAIM_DELAY;\r\n        } else {\r\n            uint256 time = stakings[user].claimedAt + MIN_CLAIM_DELAY;\r\n            return (time <= now) ? 0 : time.sub(now);\r\n        }\r\n    }\r\n\r\n    function getUserPendingReward(address user)\r\n        private\r\n        view\r\n        returns (uint256 totalPoints, uint256 userPoints, uint256 pendingReward)\r\n    {\r\n        Staking storage staking = stakings[user];\r\n\r\n        totalPoints = total.balance.mul(now.sub(total.claimedAt).add(1));\r\n        userPoints = staking.balance.mul(now.sub(staking.claimedAt));\r\n\r\n        if (totalPoints < userPoints) {\r\n            userPoints = totalPoints;\r\n        }\r\n\r\n        if (\r\n            protocolFeeVaultAddress != address(0) &&\r\n            totalPoints != 0 &&\r\n            userPoints != 0\r\n        ) {\r\n            (, , , , , , , pendingReward) = IProtocolFeeVault(\r\n                protocolFeeVaultAddress\r\n            )\r\n                .getProtocolFeeStats();\r\n            pendingReward = pendingReward.mul(userPoints) / totalPoints;\r\n        }\r\n    }\r\n}\r\n",
  "sourcePath": "C:\\Users\\aciur\\Documents\\Projects\\ethereum\\loopring-staking\\eth\\contracts\\LRC_UserStakingPool.sol",
  "compiler": {
    "name": "solc",
    "version": "0.5.16+commit.9c3226ce.Emscripten.clang"
  },
  "schemaVersion": "3.0.23",
  "updatedAt": "2020-03-28T20:29:19.333Z",
  "devdoc": {
    "methods": {}
  },
  "userdoc": {
    "methods": {}
  }
}