{
  "contractName": "ProtocolFeeVault",
  "abi": [
    {
      "inputs": [
        {
          "internalType": "address",
          "name": "_lrcAddress",
          "type": "address"
        }
      ],
      "payable": false,
      "stateMutability": "nonpayable",
      "type": "constructor"
    },
    {
      "anonymous": false,
      "inputs": [
        {
          "indexed": false,
          "internalType": "uint256",
          "name": "amountDAO",
          "type": "uint256"
        },
        {
          "indexed": false,
          "internalType": "uint256",
          "name": "amountBurn",
          "type": "uint256"
        }
      ],
      "name": "DAOFunded",
      "type": "event"
    },
    {
      "anonymous": false,
      "inputs": [
        {
          "indexed": false,
          "internalType": "uint256",
          "name": "amount",
          "type": "uint256"
        }
      ],
      "name": "LRCClaimed",
      "type": "event"
    },
    {
      "anonymous": false,
      "inputs": [
        {
          "indexed": true,
          "internalType": "address",
          "name": "previousOwner",
          "type": "address"
        },
        {
          "indexed": true,
          "internalType": "address",
          "name": "newOwner",
          "type": "address"
        }
      ],
      "name": "OwnershipTransferred",
      "type": "event"
    },
    {
      "anonymous": false,
      "inputs": [
        {
          "indexed": false,
          "internalType": "uint256",
          "name": "time",
          "type": "uint256"
        }
      ],
      "name": "SettingsUpdated",
      "type": "event"
    },
    {
      "anonymous": false,
      "inputs": [
        {
          "indexed": false,
          "internalType": "address",
          "name": "token",
          "type": "address"
        },
        {
          "indexed": false,
          "internalType": "uint256",
          "name": "amount",
          "type": "uint256"
        }
      ],
      "name": "TokenSold",
      "type": "event"
    },
    {
      "payable": true,
      "stateMutability": "payable",
      "type": "fallback"
    },
    {
      "constant": true,
      "inputs": [],
      "name": "DAO_PERDENTAGE",
      "outputs": [
        {
          "internalType": "uint256",
          "name": "",
          "type": "uint256"
        }
      ],
      "payable": false,
      "stateMutability": "view",
      "type": "function"
    },
    {
      "constant": true,
      "inputs": [],
      "name": "REWARD_PERCENTAGE",
      "outputs": [
        {
          "internalType": "uint256",
          "name": "",
          "type": "uint256"
        }
      ],
      "payable": false,
      "stateMutability": "view",
      "type": "function"
    },
    {
      "constant": false,
      "inputs": [],
      "name": "claimOwnership",
      "outputs": [],
      "payable": false,
      "stateMutability": "nonpayable",
      "type": "function"
    },
    {
      "constant": true,
      "inputs": [],
      "name": "daoAddress",
      "outputs": [
        {
          "internalType": "address",
          "name": "",
          "type": "address"
        }
      ],
      "payable": false,
      "stateMutability": "view",
      "type": "function"
    },
    {
      "constant": true,
      "inputs": [],
      "name": "lrcAddress",
      "outputs": [
        {
          "internalType": "address",
          "name": "",
          "type": "address"
        }
      ],
      "payable": false,
      "stateMutability": "view",
      "type": "function"
    },
    {
      "constant": true,
      "inputs": [],
      "name": "owner",
      "outputs": [
        {
          "internalType": "address",
          "name": "",
          "type": "address"
        }
      ],
      "payable": false,
      "stateMutability": "view",
      "type": "function"
    },
    {
      "constant": true,
      "inputs": [],
      "name": "pendingOwner",
      "outputs": [
        {
          "internalType": "address",
          "name": "",
          "type": "address"
        }
      ],
      "payable": false,
      "stateMutability": "view",
      "type": "function"
    },
    {
      "constant": false,
      "inputs": [],
      "name": "renounceOwnership",
      "outputs": [],
      "payable": false,
      "stateMutability": "nonpayable",
      "type": "function"
    },
    {
      "constant": true,
      "inputs": [],
      "name": "tokenSellerAddress",
      "outputs": [
        {
          "internalType": "address",
          "name": "",
          "type": "address"
        }
      ],
      "payable": false,
      "stateMutability": "view",
      "type": "function"
    },
    {
      "constant": false,
      "inputs": [
        {
          "internalType": "address",
          "name": "newOwner",
          "type": "address"
        }
      ],
      "name": "transferOwnership",
      "outputs": [],
      "payable": false,
      "stateMutability": "nonpayable",
      "type": "function"
    },
    {
      "constant": true,
      "inputs": [],
      "name": "userStakingPoolAddress",
      "outputs": [
        {
          "internalType": "address",
          "name": "",
          "type": "address"
        }
      ],
      "payable": false,
      "stateMutability": "view",
      "type": "function"
    },
    {
      "constant": false,
      "inputs": [
        {
          "internalType": "address",
          "name": "_userStakingPoolAddress",
          "type": "address"
        },
        {
          "internalType": "address",
          "name": "_tokenSellerAddress",
          "type": "address"
        },
        {
          "internalType": "address",
          "name": "_daoAddress",
          "type": "address"
        }
      ],
      "name": "updateSettings",
      "outputs": [],
      "payable": false,
      "stateMutability": "nonpayable",
      "type": "function"
    },
    {
      "constant": false,
      "inputs": [
        {
          "internalType": "uint256",
          "name": "amount",
          "type": "uint256"
        }
      ],
      "name": "claimStakingReward",
      "outputs": [],
      "payable": false,
      "stateMutability": "nonpayable",
      "type": "function"
    },
    {
      "constant": false,
      "inputs": [],
      "name": "fundDAO",
      "outputs": [],
      "payable": false,
      "stateMutability": "nonpayable",
      "type": "function"
    },
    {
      "constant": false,
      "inputs": [
        {
          "internalType": "address",
          "name": "token",
          "type": "address"
        },
        {
          "internalType": "uint256",
          "name": "amount",
          "type": "uint256"
        }
      ],
      "name": "sellTokenForLRC",
      "outputs": [],
      "payable": false,
      "stateMutability": "nonpayable",
      "type": "function"
    },
    {
      "constant": true,
      "inputs": [],
      "name": "getProtocolFeeStats",
      "outputs": [
        {
          "internalType": "uint256",
          "name": "accumulatedFees",
          "type": "uint256"
        },
        {
          "internalType": "uint256",
          "name": "accumulatedBurn",
          "type": "uint256"
        },
        {
          "internalType": "uint256",
          "name": "accumulatedDAOFund",
          "type": "uint256"
        },
        {
          "internalType": "uint256",
          "name": "accumulatedReward",
          "type": "uint256"
        },
        {
          "internalType": "uint256",
          "name": "remainingFees",
          "type": "uint256"
        },
        {
          "internalType": "uint256",
          "name": "remainingBurn",
          "type": "uint256"
        },
        {
          "internalType": "uint256",
          "name": "remainingDAOFund",
          "type": "uint256"
        },
        {
          "internalType": "uint256",
          "name": "remainingReward",
          "type": "uint256"
        }
      ],
      "payable": false,
      "stateMutability": "view",
      "type": "function"
    }
  ],
  "bytecode": "0x608060405234801561001057600080fd5b506040516123c13803806123c18339818101604052602081101561003357600080fd5b8101908080519060200190929190505050336000806101000a81548173ffffffffffffffffffffffffffffffffffffffff021916908373ffffffffffffffffffffffffffffffffffffffff160217905550600073ffffffffffffffffffffffffffffffffffffffff168173ffffffffffffffffffffffffffffffffffffffff161415610127576040517f08c379a000000000000000000000000000000000000000000000000000000000815260040180806020018281038252600c8152602001807f5a45524f5f41444452455353000000000000000000000000000000000000000081525060200191505060405180910390fd5b80600460006101000a81548173ffffffffffffffffffffffffffffffffffffffff021916908373ffffffffffffffffffffffffffffffffffffffff16021790555050612249806101786000396000f3fe6080604052600436106100f35760003560e01c806368b79c321161008a578063e30c397811610059578063e30c397814610444578063e3fe47641461049b578063f2fde38b146104f2578063fc72b1ed14610543576100f3565b806368b79c3214610354578063715018a61461037f5780638da5cb5b14610396578063a0cea6c0146103ed576100f3565b80633d6cf722116100c65780633d6cf7221461023e5780634e71e0c81461029557806357aabe91146102ac578063611633791461033d576100f3565b80632131c68c146100f5578063239cd4a41461014c5780632a7bf6bf14610187578063365a906c146101e2575b005b34801561010157600080fd5b5061010a61056e565b604051808273ffffffffffffffffffffffffffffffffffffffff1673ffffffffffffffffffffffffffffffffffffffff16815260200191505060405180910390f35b34801561015857600080fd5b506101856004803603602081101561016f57600080fd5b8101908080359060200190929190505050610594565b005b34801561019357600080fd5b506101e0600480360360408110156101aa57600080fd5b81019080803573ffffffffffffffffffffffffffffffffffffffff16906020019092919080359060200190929190505050610819565b005b3480156101ee57600080fd5b506101f7610d7e565b604051808981526020018881526020018781526020018681526020018581526020018481526020018381526020018281526020019850505050505050505060405180910390f35b34801561024a57600080fd5b50610253610f5b565b604051808273ffffffffffffffffffffffffffffffffffffffff1673ffffffffffffffffffffffffffffffffffffffff16815260200191505060405180910390f35b3480156102a157600080fd5b506102aa610f81565b005b3480156102b857600080fd5b5061033b600480360360608110156102cf57600080fd5b81019080803573ffffffffffffffffffffffffffffffffffffffff169060200190929190803573ffffffffffffffffffffffffffffffffffffffff169060200190929190803573ffffffffffffffffffffffffffffffffffffffff169060200190929190505050611187565b005b34801561034957600080fd5b50610352611546565b005b34801561036057600080fd5b506103696118a1565b6040518082815260200191505060405180910390f35b34801561038b57600080fd5b506103946118a6565b005b3480156103a257600080fd5b506103ab611a27565b604051808273ffffffffffffffffffffffffffffffffffffffff1673ffffffffffffffffffffffffffffffffffffffff16815260200191505060405180910390f35b3480156103f957600080fd5b50610402611a4c565b604051808273ffffffffffffffffffffffffffffffffffffffff1673ffffffffffffffffffffffffffffffffffffffff16815260200191505060405180910390f35b34801561045057600080fd5b50610459611a72565b604051808273ffffffffffffffffffffffffffffffffffffffff1673ffffffffffffffffffffffffffffffffffffffff16815260200191505060405180910390f35b3480156104a757600080fd5b506104b0611a98565b604051808273ffffffffffffffffffffffffffffffffffffffff1673ffffffffffffffffffffffffffffffffffffffff16815260200191505060405180910390f35b3480156104fe57600080fd5b506105416004803603602081101561051557600080fd5b81019080803573ffffffffffffffffffffffffffffffffffffffff169060200190929190505050611abe565b005b34801561054f57600080fd5b50610558611cc0565b6040518082815260200191505060405180910390f35b600660009054906101000a900473ffffffffffffffffffffffffffffffffffffffff1681565b60006002541461060c576040517f08c379a000000000000000000000000000000000000000000000000000000000815260040180806020018281038252600a8152602001807f5245454e5452414e43590000000000000000000000000000000000000000000081525060200191505060405180910390fd5b60016002819055506000811161068a576040517f08c379a000000000000000000000000000000000000000000000000000000000815260040180806020018281038252600a8152602001807f5a45524f5f56414c55450000000000000000000000000000000000000000000081525060200191505060405180910390fd5b600360009054906101000a900473ffffffffffffffffffffffffffffffffffffffff1673ffffffffffffffffffffffffffffffffffffffff163373ffffffffffffffffffffffffffffffffffffffff161461074d576040517f08c379a000000000000000000000000000000000000000000000000000000000815260040180806020018281038252600c8152602001807f554e415554484f52495a4544000000000000000000000000000000000000000081525060200191505060405180910390fd5b6107bc600360009054906101000a900473ffffffffffffffffffffffffffffffffffffffff1682600460009054906101000a900473ffffffffffffffffffffffffffffffffffffffff1673ffffffffffffffffffffffffffffffffffffffff16611cc59092919063ffffffff16565b6107d181600754611cd690919063ffffffff16565b6007819055507faf9f8e373f3b94eb4c733ac25dd927271dc24febef9ae82f0868502653fdb65c816040518082815260200191505060405180910390a1600060028190555050565b600060025414610891576040517f08c379a000000000000000000000000000000000000000000000000000000000815260040180806020018281038252600a8152602001807f5245454e5452414e43590000000000000000000000000000000000000000000081525060200191505060405180910390fd5b60016002819055506000811161090f576040517f08c379a000000000000000000000000000000000000000000000000000000000815260040180806020018281038252600b8152602001807f5a45524f5f414d4f554e5400000000000000000000000000000000000000000081525060200191505060405180910390fd5b600460009054906101000a900473ffffffffffffffffffffffffffffffffffffffff1673ffffffffffffffffffffffffffffffffffffffff168273ffffffffffffffffffffffffffffffffffffffff1614156109d3576040517f08c379a000000000000000000000000000000000000000000000000000000000815260040180806020018281038252600a8152602001807f50524f484942495445440000000000000000000000000000000000000000000081525060200191505060405180910390fd5b60008073ffffffffffffffffffffffffffffffffffffffff16600560009054906101000a900473ffffffffffffffffffffffffffffffffffffffff1673ffffffffffffffffffffffffffffffffffffffff1614610a5257600560009054906101000a900473ffffffffffffffffffffffffffffffffffffffff16610a75565b6000809054906101000a900473ffffffffffffffffffffffffffffffffffffffff165b9050600073ffffffffffffffffffffffffffffffffffffffff168373ffffffffffffffffffffffffffffffffffffffff161415610add57610ad7825a8373ffffffffffffffffffffffffffffffffffffffff16611d599092919063ffffffff16565b50610b09565b610b0881838573ffffffffffffffffffffffffffffffffffffffff16611cc59092919063ffffffff16565b5b600073ffffffffffffffffffffffffffffffffffffffff16600560009054906101000a900473ffffffffffffffffffffffffffffffffffffffff1673ffffffffffffffffffffffffffffffffffffffff161480610c945750600560009054906101000a900473ffffffffffffffffffffffffffffffffffffffff1673ffffffffffffffffffffffffffffffffffffffff1663dc42f97184600460009054906101000a900473ffffffffffffffffffffffffffffffffffffffff166040518363ffffffff1660e01b8152600401808373ffffffffffffffffffffffffffffffffffffffff1673ffffffffffffffffffffffffffffffffffffffff1681526020018273ffffffffffffffffffffffffffffffffffffffff1673ffffffffffffffffffffffffffffffffffffffff16815260200192505050602060405180830381600087803b158015610c5857600080fd5b505af1158015610c6c573d6000803e3d6000fd5b505050506040513d6020811015610c8257600080fd5b81019080805190602001909291905050505b610d06576040517f08c379a000000000000000000000000000000000000000000000000000000000815260040180806020018281038252600c8152602001807f53454c4c5f4641494c555245000000000000000000000000000000000000000081525060200191505060405180910390fd5b7ffe2ff4cf36ff7d2c2b06eb960897ee0d76d9c3e58da12feb7b93e86b226dd3448383604051808373ffffffffffffffffffffffffffffffffffffffff1673ffffffffffffffffffffffffffffffffffffffff1681526020018281526020019250505060405180910390a15060006002819055505050565b600080600080600080600080600460009054906101000a900473ffffffffffffffffffffffffffffffffffffffff1673ffffffffffffffffffffffffffffffffffffffff166370a08231306040518263ffffffff1660e01b8152600401808273ffffffffffffffffffffffffffffffffffffffff1673ffffffffffffffffffffffffffffffffffffffff16815260200191505060206040518083038186803b158015610e2957600080fd5b505afa158015610e3d573d6000803e3d6000fd5b505050506040513d6020811015610e5357600080fd5b81019080805190602001909291905050509350610ea3600954610e95600854610e8760075489611cd690919063ffffffff16565b611cd690919063ffffffff16565b611cd690919063ffffffff16565b97506064610ebb60468a611e0290919063ffffffff16565b81610ec257fe5b0494506064610edb60148a611e0290919063ffffffff16565b81610ee257fe5b049550610f0a86610efc878b611e9890919063ffffffff16565b611e9890919063ffffffff16565b9650610f2160075486611e9890919063ffffffff16565b9050610f3860085487611e9890919063ffffffff16565b9150610f4f60095488611e9890919063ffffffff16565b92509091929394959697565b600460009054906101000a900473ffffffffffffffffffffffffffffffffffffffff1681565b600160009054906101000a900473ffffffffffffffffffffffffffffffffffffffff1673ffffffffffffffffffffffffffffffffffffffff163373ffffffffffffffffffffffffffffffffffffffff1614611044576040517f08c379a000000000000000000000000000000000000000000000000000000000815260040180806020018281038252600c8152602001807f554e415554484f52495a4544000000000000000000000000000000000000000081525060200191505060405180910390fd5b600160009054906101000a900473ffffffffffffffffffffffffffffffffffffffff1673ffffffffffffffffffffffffffffffffffffffff166000809054906101000a900473ffffffffffffffffffffffffffffffffffffffff1673ffffffffffffffffffffffffffffffffffffffff167f8be0079c531659141344cd1fd0a4f28419497f9722a3daafe3b4186f6b6457e060405160405180910390a3600160009054906101000a900473ffffffffffffffffffffffffffffffffffffffff166000806101000a81548173ffffffffffffffffffffffffffffffffffffffff021916908373ffffffffffffffffffffffffffffffffffffffff1602179055506000600160006101000a81548173ffffffffffffffffffffffffffffffffffffffff021916908373ffffffffffffffffffffffffffffffffffffffff160217905550565b6000600254146111ff576040517f08c379a000000000000000000000000000000000000000000000000000000000815260040180806020018281038252600a8152602001807f5245454e5452414e43590000000000000000000000000000000000000000000081525060200191505060405180910390fd5b60016002819055506000809054906101000a900473ffffffffffffffffffffffffffffffffffffffff1673ffffffffffffffffffffffffffffffffffffffff163373ffffffffffffffffffffffffffffffffffffffff16146112c9576040517f08c379a000000000000000000000000000000000000000000000000000000000815260040180806020018281038252600c8152602001807f554e415554484f52495a4544000000000000000000000000000000000000000081525060200191505060405180910390fd5b8273ffffffffffffffffffffffffffffffffffffffff16600360009054906101000a900473ffffffffffffffffffffffffffffffffffffffff1673ffffffffffffffffffffffffffffffffffffffff1614158061137457508173ffffffffffffffffffffffffffffffffffffffff16600560009054906101000a900473ffffffffffffffffffffffffffffffffffffffff1673ffffffffffffffffffffffffffffffffffffffff1614155b806113cd57508073ffffffffffffffffffffffffffffffffffffffff16600660009054906101000a900473ffffffffffffffffffffffffffffffffffffffff1673ffffffffffffffffffffffffffffffffffffffff1614155b61143f576040517f08c379a000000000000000000000000000000000000000000000000000000000815260040180806020018281038252600e8152602001807f53414d455f41444452455353455300000000000000000000000000000000000081525060200191505060405180910390fd5b82600360006101000a81548173ffffffffffffffffffffffffffffffffffffffff021916908373ffffffffffffffffffffffffffffffffffffffff16021790555081600560006101000a81548173ffffffffffffffffffffffffffffffffffffffff021916908373ffffffffffffffffffffffffffffffffffffffff16021790555080600660006101000a81548173ffffffffffffffffffffffffffffffffffffffff021916908373ffffffffffffffffffffffffffffffffffffffff1602179055507f4b804a0bfbdc2639203b93035be561d86f65f52b7e14984f95ec9d298cafccac426040518082815260200191505060405180910390a16000600281905550505050565b6000600254146115be576040517f08c379a000000000000000000000000000000000000000000000000000000000815260040180806020018281038252600a8152602001807f5245454e5452414e43590000000000000000000000000000000000000000000081525060200191505060405180910390fd5b60016002819055506000806115d1610d7e565b90919293949596509091929394955090919293945090919293509091925050809350819250505060008073ffffffffffffffffffffffffffffffffffffffff16600660009054906101000a900473ffffffffffffffffffffffffffffffffffffffff1673ffffffffffffffffffffffffffffffffffffffff161461167757600660009054906101000a900473ffffffffffffffffffffffffffffffffffffffff1661169a565b6000809054906101000a900473ffffffffffffffffffffffffffffffffffffffff165b905060008311156116f3576116f28184600460009054906101000a900473ffffffffffffffffffffffffffffffffffffffff1673ffffffffffffffffffffffffffffffffffffffff16611cc59092919063ffffffff16565b5b600082111561181f57600460009054906101000a900473ffffffffffffffffffffffffffffffffffffffff1673ffffffffffffffffffffffffffffffffffffffff166342966c68836040518263ffffffff1660e01b815260040180828152602001915050602060405180830381600087803b15801561177157600080fd5b505af1158015611785573d6000803e3d6000fd5b505050506040513d602081101561179b57600080fd5b810190808051906020019092919050505061181e576040517f08c379a000000000000000000000000000000000000000000000000000000000815260040180806020018281038252600c8152602001807f4255524e5f4641494c555245000000000000000000000000000000000000000081525060200191505060405180910390fd5b5b61183482600954611cd690919063ffffffff16565b60098190555061184f83600854611cd690919063ffffffff16565b6008819055507ff5deee3dde315bb684736ad09d95603ad754fe04704f5a2f0719216a09dac68d8383604051808381526020018281526020019250505060405180910390a15050506000600281905550565b601481565b6000809054906101000a900473ffffffffffffffffffffffffffffffffffffffff1673ffffffffffffffffffffffffffffffffffffffff163373ffffffffffffffffffffffffffffffffffffffff1614611968576040517f08c379a000000000000000000000000000000000000000000000000000000000815260040180806020018281038252600c8152602001807f554e415554484f52495a4544000000000000000000000000000000000000000081525060200191505060405180910390fd5b600073ffffffffffffffffffffffffffffffffffffffff166000809054906101000a900473ffffffffffffffffffffffffffffffffffffffff1673ffffffffffffffffffffffffffffffffffffffff167f8be0079c531659141344cd1fd0a4f28419497f9722a3daafe3b4186f6b6457e060405160405180910390a360008060006101000a81548173ffffffffffffffffffffffffffffffffffffffff021916908373ffffffffffffffffffffffffffffffffffffffff160217905550565b6000809054906101000a900473ffffffffffffffffffffffffffffffffffffffff1681565b600360009054906101000a900473ffffffffffffffffffffffffffffffffffffffff1681565b600160009054906101000a900473ffffffffffffffffffffffffffffffffffffffff1681565b600560009054906101000a900473ffffffffffffffffffffffffffffffffffffffff1681565b6000809054906101000a900473ffffffffffffffffffffffffffffffffffffffff1673ffffffffffffffffffffffffffffffffffffffff163373ffffffffffffffffffffffffffffffffffffffff1614611b80576040517f08c379a000000000000000000000000000000000000000000000000000000000815260040180806020018281038252600c8152602001807f554e415554484f52495a4544000000000000000000000000000000000000000081525060200191505060405180910390fd5b600073ffffffffffffffffffffffffffffffffffffffff168173ffffffffffffffffffffffffffffffffffffffff1614158015611c0a57506000809054906101000a900473ffffffffffffffffffffffffffffffffffffffff1673ffffffffffffffffffffffffffffffffffffffff168173ffffffffffffffffffffffffffffffffffffffff1614155b611c7c576040517f08c379a000000000000000000000000000000000000000000000000000000000815260040180806020018281038252600f8152602001807f494e56414c49445f41444452455353000000000000000000000000000000000081525060200191505060405180910390fd5b80600160006101000a81548173ffffffffffffffffffffffffffffffffffffffff021916908373ffffffffffffffffffffffffffffffffffffffff16021790555050565b604681565b611cd18383835a611f1b565b505050565b6000818301905082811015611d53576040517f08c379a000000000000000000000000000000000000000000000000000000000815260040180806020018281038252600c8152602001807f4144445f4f564552464c4f57000000000000000000000000000000000000000081525060200191505060405180910390fd5b92915050565b6000611d8683838673ffffffffffffffffffffffffffffffffffffffff16611f9f9092919063ffffffff16565b905080611dfb576040517f08c379a00000000000000000000000000000000000000000000000000000000081526004018080602001828103825260108152602001807f5452414e534645525f4641494c5552450000000000000000000000000000000081525060200191505060405180910390fd5b9392505050565b600081830290506000831480611e20575081838281611e1d57fe5b04145b611e92576040517f08c379a000000000000000000000000000000000000000000000000000000000815260040180806020018281038252600c8152602001807f4d554c5f4f564552464c4f57000000000000000000000000000000000000000081525060200191505060405180910390fd5b92915050565b600082821115611f10576040517f08c379a000000000000000000000000000000000000000000000000000000000815260040180806020018281038252600d8152602001807f5355425f554e444552464c4f570000000000000000000000000000000000000081525060200191505060405180910390fd5b818303905092915050565b611f278484848461204a565b611f99576040517f08c379a00000000000000000000000000000000000000000000000000000000081526004018080602001828103825260108152602001807f5452414e534645525f4641494c5552450000000000000000000000000000000081525060200191505060405180910390fd5b50505050565b600080831415611fb25760019050612043565b6000611fd38573ffffffffffffffffffffffffffffffffffffffff166121c9565b90508073ffffffffffffffffffffffffffffffffffffffff16848490604051806000019050600060405180830381858888f193505050503d8060008114612036576040519150601f19603f3d011682016040523d82523d6000602084013e61203b565b606091505b505080925050505b9392505050565b6000606063a9059cbb60e01b8585604051602401808373ffffffffffffffffffffffffffffffffffffffff1673ffffffffffffffffffffffffffffffffffffffff16815260200182815260200192505050604051602081830303815290604052907bffffffffffffffffffffffffffffffffffffffffffffffffffffffff19166020820180517bffffffffffffffffffffffffffffffffffffffffffffffffffffffff8381831617835250505050905060008673ffffffffffffffffffffffffffffffffffffffff1684836040518082805190602001908083835b602083106121485780518252602082019150602081019050602083039250612125565b6001836020036101000a03801982511681845116808217855250505050505090500191505060006040518083038160008787f1925050503d80600081146121ab576040519150601f19603f3d011682016040523d82523d6000602084013e6121b0565b606091505b505090506121bd816121d3565b92505050949350505050565b6000819050919050565b6000811561220c573d600081146121f557602081146121fe576000925061220a565b6001925061220a565b60206000803e60005192505b505b81905091905056fea265627a7a72315820ece9e99883338f32d79107571191e07ae183f23f70b324c38683603613c5032c64736f6c63430005100032",
  "source": "/**\r\n *Submitted for verification at Etherscan.io on 2020-03-10\r\n */\r\n\r\n/*\r\n\r\n  Copyright 2017 Loopring Project Ltd (Loopring Foundation).\r\n\r\n  Licensed under the Apache License, Version 2.0 (the \"License\");\r\n  you may not use this file except in compliance with the License.\r\n  You may obtain a copy of the License at\r\n\r\n  http://www.apache.org/licenses/LICENSE-2.0\r\n\r\n  Unless required by applicable law or agreed to in writing, software\r\n  distributed under the License is distributed on an \"AS IS\" BASIS,\r\n  WITHOUT WARRANTIES OR CONDITIONS OF ANY KIND, either express or implied.\r\n  See the License for the specific language governing permissions and\r\n  limitations under the License.\r\n*/\r\npragma solidity ^0.5.11;\r\n\r\n\r\n/// @title ERC20 Token Interface\r\n/// @dev see https://github.com/ethereum/EIPs/issues/20\r\n/// @author Daniel Wang - <daniel@loopring.org>\r\ncontract ERC20 {\r\n    function totalSupply() public view returns (uint256);\r\n\r\n    function balanceOf(address who) public view returns (uint256);\r\n\r\n    function allowance(address owner, address spender)\r\n        public\r\n        view\r\n        returns (uint256);\r\n\r\n    function transfer(address to, uint256 value) public returns (bool);\r\n\r\n    function transferFrom(address from, address to, uint256 value)\r\n        public\r\n        returns (bool);\r\n\r\n    function approve(address spender, uint256 value) public returns (bool);\r\n}\r\n\r\n\r\n/*\r\n\r\n  Copyright 2017 Loopring Project Ltd (Loopring Foundation).\r\n\r\n  Licensed under the Apache License, Version 2.0 (the \"License\");\r\n  you may not use this file except in compliance with the License.\r\n  You may obtain a copy of the License at\r\n\r\n  http://www.apache.org/licenses/LICENSE-2.0\r\n\r\n  Unless required by applicable law or agreed to in writing, software\r\n  distributed under the License is distributed on an \"AS IS\" BASIS,\r\n  WITHOUT WARRANTIES OR CONDITIONS OF ANY KIND, either express or implied.\r\n  See the License for the specific language governing permissions and\r\n  limitations under the License.\r\n*/\r\n\r\n/*\r\n\r\n  Copyright 2017 Loopring Project Ltd (Loopring Foundation).\r\n\r\n  Licensed under the Apache License, Version 2.0 (the \"License\");\r\n  you may not use this file except in compliance with the License.\r\n  You may obtain a copy of the License at\r\n\r\n  http://www.apache.org/licenses/LICENSE-2.0\r\n\r\n  Unless required by applicable law or agreed to in writing, software\r\n  distributed under the License is distributed on an \"AS IS\" BASIS,\r\n  WITHOUT WARRANTIES OR CONDITIONS OF ANY KIND, either express or implied.\r\n  See the License for the specific language governing permissions and\r\n  limitations under the License.\r\n*/\r\n\r\n/// @title Utility Functions for addresses\r\n/// @author Daniel Wang - <daniel@loopring.org>\r\n/// @author Brecht Devos - <brecht@loopring.org>\r\nlibrary AddressUtil {\r\n    using AddressUtil for *;\r\n\r\n    function isContract(address addr) internal view returns (bool) {\r\n        uint32 size;\r\n        assembly {\r\n            size := extcodesize(addr)\r\n        }\r\n        return (size > 0);\r\n    }\r\n\r\n    function toPayable(address addr) internal pure returns (address payable) {\r\n        return address(uint160(addr));\r\n    }\r\n\r\n    // Works like address.send but with a customizable gas limit\r\n    // Make sure your code is safe for reentrancy when using this function!\r\n    function sendETH(address to, uint256 amount, uint256 gasLimit)\r\n        internal\r\n        returns (bool success)\r\n    {\r\n        if (amount == 0) {\r\n            return true;\r\n        }\r\n        address payable recipient = to.toPayable();\r\n        /* solium-disable-next-line */\r\n        (success, ) = recipient.call.value(amount).gas(gasLimit)(\"\");\r\n    }\r\n\r\n    // Works like address.transfer but with a customizable gas limit\r\n    // Make sure your code is safe for reentrancy when using this function!\r\n    function sendETHAndVerify(address to, uint256 amount, uint256 gasLimit)\r\n        internal\r\n        returns (bool success)\r\n    {\r\n        success = to.sendETH(amount, gasLimit);\r\n        require(success, \"TRANSFER_FAILURE\");\r\n    }\r\n}\r\n\r\n\r\n/*\r\n\r\n  Copyright 2017 Loopring Project Ltd (Loopring Foundation).\r\n\r\n  Licensed under the Apache License, Version 2.0 (the \"License\");\r\n  you may not use this file except in compliance with the License.\r\n  You may obtain a copy of the License at\r\n\r\n  http://www.apache.org/licenses/LICENSE-2.0\r\n\r\n  Unless required by applicable law or agreed to in writing, software\r\n  distributed under the License is distributed on an \"AS IS\" BASIS,\r\n  WITHOUT WARRANTIES OR CONDITIONS OF ANY KIND, either express or implied.\r\n  See the License for the specific language governing permissions and\r\n  limitations under the License.\r\n*/\r\n\r\n/// @title Burnable ERC20 Token Interface\r\n/// @author Brecht Devos - <brecht@loopring.org>\r\ncontract BurnableERC20 is ERC20 {\r\n    function burn(uint256 value) public returns (bool);\r\n\r\n    function burnFrom(address from, uint256 value) public returns (bool);\r\n}\r\n\r\n\r\n/*\r\n\r\n  Copyright 2017 Loopring Project Ltd (Loopring Foundation).\r\n\r\n  Licensed under the Apache License, Version 2.0 (the \"License\");\r\n  you may not use this file except in compliance with the License.\r\n  You may obtain a copy of the License at\r\n\r\n  http://www.apache.org/licenses/LICENSE-2.0\r\n\r\n  Unless required by applicable law or agreed to in writing, software\r\n  distributed under the License is distributed on an \"AS IS\" BASIS,\r\n  WITHOUT WARRANTIES OR CONDITIONS OF ANY KIND, either express or implied.\r\n  See the License for the specific language governing permissions and\r\n  limitations under the License.\r\n*/\r\n\r\n/*\r\n\r\n  Copyright 2017 Loopring Project Ltd (Loopring Foundation).\r\n\r\n  Licensed under the Apache License, Version 2.0 (the \"License\");\r\n  you may not use this file except in compliance with the License.\r\n  You may obtain a copy of the License at\r\n\r\n  http://www.apache.org/licenses/LICENSE-2.0\r\n\r\n  Unless required by applicable law or agreed to in writing, software\r\n  distributed under the License is distributed on an \"AS IS\" BASIS,\r\n  WITHOUT WARRANTIES OR CONDITIONS OF ANY KIND, either express or implied.\r\n  See the License for the specific language governing permissions and\r\n  limitations under the License.\r\n*/\r\n\r\n/// @title Ownable\r\n/// @author Brecht Devos - <brecht@loopring.org>\r\n/// @dev The Ownable contract has an owner address, and provides basic\r\n///      authorization control functions, this simplifies the implementation of\r\n///      \"user permissions\".\r\ncontract Ownable {\r\n    address public owner;\r\n\r\n    event OwnershipTransferred(\r\n        address indexed previousOwner,\r\n        address indexed newOwner\r\n    );\r\n\r\n    /// @dev The Ownable constructor sets the original `owner` of the contract\r\n    ///      to the sender.\r\n    constructor() public {\r\n        owner = msg.sender;\r\n    }\r\n\r\n    /// @dev Throws if called by any account other than the owner.\r\n    modifier onlyOwner() {\r\n        require(msg.sender == owner, \"UNAUTHORIZED\");\r\n        _;\r\n    }\r\n\r\n    /// @dev Allows the current owner to transfer control of the contract to a\r\n    ///      new owner.\r\n    /// @param newOwner The address to transfer ownership to.\r\n    function transferOwnership(address newOwner) public onlyOwner {\r\n        require(newOwner != address(0), \"ZERO_ADDRESS\");\r\n        emit OwnershipTransferred(owner, newOwner);\r\n        owner = newOwner;\r\n    }\r\n\r\n    function renounceOwnership() public onlyOwner {\r\n        emit OwnershipTransferred(owner, address(0));\r\n        owner = address(0);\r\n    }\r\n}\r\n\r\n\r\n/// @title Claimable\r\n/// @author Brecht Devos - <brecht@loopring.org>\r\n/// @dev Extension for the Ownable contract, where the ownership needs\r\n///      to be claimed. This allows the new owner to accept the transfer.\r\ncontract Claimable is Ownable {\r\n    address public pendingOwner;\r\n\r\n    /// @dev Modifier throws if called by any account other than the pendingOwner.\r\n    modifier onlyPendingOwner() {\r\n        require(msg.sender == pendingOwner, \"UNAUTHORIZED\");\r\n        _;\r\n    }\r\n\r\n    /// @dev Allows the current owner to set the pendingOwner address.\r\n    /// @param newOwner The address to transfer ownership to.\r\n    function transferOwnership(address newOwner) public onlyOwner {\r\n        require(newOwner != address(0) && newOwner != owner, \"INVALID_ADDRESS\");\r\n        pendingOwner = newOwner;\r\n    }\r\n\r\n    /// @dev Allows the pendingOwner address to finalize the transfer.\r\n    function claimOwnership() public onlyPendingOwner {\r\n        emit OwnershipTransferred(owner, pendingOwner);\r\n        owner = pendingOwner;\r\n        pendingOwner = address(0);\r\n    }\r\n}\r\n\r\n\r\n/*\r\n\r\n  Copyright 2017 Loopring Project Ltd (Loopring Foundation).\r\n\r\n  Licensed under the Apache License, Version 2.0 (the \"License\");\r\n  you may not use this file except in compliance with the License.\r\n  You may obtain a copy of the License at\r\n\r\n  http://www.apache.org/licenses/LICENSE-2.0\r\n\r\n  Unless required by applicable law or agreed to in writing, software\r\n  distributed under the License is distributed on an \"AS IS\" BASIS,\r\n  WITHOUT WARRANTIES OR CONDITIONS OF ANY KIND, either express or implied.\r\n  See the License for the specific language governing permissions and\r\n  limitations under the License.\r\n*/\r\n\r\n/// @title ERC20 safe transfer\r\n/// @dev see https://github.com/sec-bit/badERC20Fix\r\n/// @author Brecht Devos - <brecht@loopring.org>\r\nlibrary ERC20SafeTransfer {\r\n    function safeTransferAndVerify(address token, address to, uint256 value)\r\n        internal\r\n    {\r\n        safeTransferWithGasLimitAndVerify(token, to, value, gasleft());\r\n    }\r\n\r\n    function safeTransfer(address token, address to, uint256 value)\r\n        internal\r\n        returns (bool)\r\n    {\r\n        return safeTransferWithGasLimit(token, to, value, gasleft());\r\n    }\r\n\r\n    function safeTransferWithGasLimitAndVerify(\r\n        address token,\r\n        address to,\r\n        uint256 value,\r\n        uint256 gasLimit\r\n    ) internal {\r\n        require(\r\n            safeTransferWithGasLimit(token, to, value, gasLimit),\r\n            \"TRANSFER_FAILURE\"\r\n        );\r\n    }\r\n\r\n    function safeTransferWithGasLimit(\r\n        address token,\r\n        address to,\r\n        uint256 value,\r\n        uint256 gasLimit\r\n    ) internal returns (bool) {\r\n        // A transfer is successful when 'call' is successful and depending on the token:\r\n        // - No value is returned: we assume a revert when the transfer failed (i.e. 'call' returns false)\r\n        // - A single boolean is returned: this boolean needs to be true (non-zero)\r\n\r\n        // bytes4(keccak256(\"transfer(address,uint)\")) = 0xa9059cbb\r\n        bytes memory callData = abi.encodeWithSelector(\r\n            bytes4(0xa9059cbb),\r\n            to,\r\n            value\r\n        );\r\n        (bool success, ) = token.call.gas(gasLimit)(callData);\r\n        return checkReturnValue(success);\r\n    }\r\n\r\n    function safeTransferFromAndVerify(\r\n        address token,\r\n        address from,\r\n        address to,\r\n        uint256 value\r\n    ) internal {\r\n        safeTransferFromWithGasLimitAndVerify(\r\n            token,\r\n            from,\r\n            to,\r\n            value,\r\n            gasleft()\r\n        );\r\n    }\r\n\r\n    function safeTransferFrom(\r\n        address token,\r\n        address from,\r\n        address to,\r\n        uint256 value\r\n    ) internal returns (bool) {\r\n        return safeTransferFromWithGasLimit(token, from, to, value, gasleft());\r\n    }\r\n\r\n    function safeTransferFromWithGasLimitAndVerify(\r\n        address token,\r\n        address from,\r\n        address to,\r\n        uint256 value,\r\n        uint256 gasLimit\r\n    ) internal {\r\n        bool result = safeTransferFromWithGasLimit(\r\n            token,\r\n            from,\r\n            to,\r\n            value,\r\n            gasLimit\r\n        );\r\n        require(result, \"TRANSFER_FAILURE\");\r\n    }\r\n\r\n    function safeTransferFromWithGasLimit(\r\n        address token,\r\n        address from,\r\n        address to,\r\n        uint256 value,\r\n        uint256 gasLimit\r\n    ) internal returns (bool) {\r\n        // A transferFrom is successful when 'call' is successful and depending on the token:\r\n        // - No value is returned: we assume a revert when the transfer failed (i.e. 'call' returns false)\r\n        // - A single boolean is returned: this boolean needs to be true (non-zero)\r\n\r\n        // bytes4(keccak256(\"transferFrom(address,address,uint)\")) = 0x23b872dd\r\n        bytes memory callData = abi.encodeWithSelector(\r\n            bytes4(0x23b872dd),\r\n            from,\r\n            to,\r\n            value\r\n        );\r\n        (bool success, ) = token.call.gas(gasLimit)(callData);\r\n        return checkReturnValue(success);\r\n    }\r\n\r\n    function checkReturnValue(bool success) internal pure returns (bool) {\r\n        // A transfer/transferFrom is successful when 'call' is successful and depending on the token:\r\n        // - No value is returned: we assume a revert when the transfer failed (i.e. 'call' returns false)\r\n        // - A single boolean is returned: this boolean needs to be true (non-zero)\r\n        if (success) {\r\n            assembly {\r\n                switch returndatasize()\r\n                    // Non-standard ERC20: nothing is returned so if 'call' was successful we assume the transfer succeeded\r\n                    case 0 {\r\n                        success := 1\r\n                    }\r\n                    // Standard ERC20: a single boolean value is returned which needs to be true\r\n                    case 32 {\r\n                        returndatacopy(0, 0, 32)\r\n                        success := mload(0)\r\n                    }\r\n                    // None of the above: not successful\r\n                    default {\r\n                        success := 0\r\n                    }\r\n            }\r\n        }\r\n        return success;\r\n    }\r\n}\r\n\r\n\r\n/*\r\n\r\n  Copyright 2017 Loopring Project Ltd (Loopring Foundation).\r\n\r\n  Licensed under the Apache License, Version 2.0 (the \"License\");\r\n  you may not use this file except in compliance with the License.\r\n  You may obtain a copy of the License at\r\n\r\n  http://www.apache.org/licenses/LICENSE-2.0\r\n\r\n  Unless required by applicable law or agreed to in writing, software\r\n  distributed under the License is distributed on an \"AS IS\" BASIS,\r\n  WITHOUT WARRANTIES OR CONDITIONS OF ANY KIND, either express or implied.\r\n  See the License for the specific language governing permissions and\r\n  limitations under the License.\r\n*/\r\n\r\n/// @title Utility Functions for uint\r\n/// @author Daniel Wang - <daniel@loopring.org>\r\nlibrary MathUint {\r\n    function mul(uint256 a, uint256 b) internal pure returns (uint256 c) {\r\n        c = a * b;\r\n        require(a == 0 || c / a == b, \"MUL_OVERFLOW\");\r\n    }\r\n\r\n    function sub(uint256 a, uint256 b) internal pure returns (uint256) {\r\n        require(b <= a, \"SUB_UNDERFLOW\");\r\n        return a - b;\r\n    }\r\n\r\n    function add(uint256 a, uint256 b) internal pure returns (uint256 c) {\r\n        c = a + b;\r\n        require(c >= a, \"ADD_OVERFLOW\");\r\n    }\r\n\r\n    function decodeFloat(uint256 f) internal pure returns (uint256 value) {\r\n        uint256 numBitsMantissa = 23;\r\n        uint256 exponent = f >> numBitsMantissa;\r\n        uint256 mantissa = f & ((1 << numBitsMantissa) - 1);\r\n        value = mantissa * (10**exponent);\r\n    }\r\n}\r\n\r\n\r\n/*\r\n\r\n  Copyright 2017 Loopring Project Ltd (Loopring Foundation).\r\n\r\n  Licensed under the Apache License, Version 2.0 (the \"License\");\r\n  you may not use this file except in compliance with the License.\r\n  You may obtain a copy of the License at\r\n\r\n  http://www.apache.org/licenses/LICENSE-2.0\r\n\r\n  Unless required by applicable law or agreed to in writing, software\r\n  distributed under the License is distributed on an \"AS IS\" BASIS,\r\n  WITHOUT WARRANTIES OR CONDITIONS OF ANY KIND, either express or implied.\r\n  See the License for the specific language governing permissions and\r\n  limitations under the License.\r\n*/\r\n\r\n/// @title ReentrancyGuard\r\n/// @author Brecht Devos - <brecht@loopring.org>\r\n/// @dev Exposes a modifier that guards a function against reentrancy\r\n///      Changing the value of the same storage value multiple times in a transaction\r\n///      is cheap (starting from Istanbul) so there is no need to minimize\r\n///      the number of times the value is changed\r\ncontract ReentrancyGuard {\r\n    //The default value must be 0 in order to work behind a proxy.\r\n    uint256 private _guardValue;\r\n\r\n    // Use this modifier on a function to prevent reentrancy\r\n    modifier nonReentrant() {\r\n        // Check if the guard value has its original value\r\n        require(_guardValue == 0, \"REENTRANCY\");\r\n\r\n        // Set the value to something else\r\n        _guardValue = 1;\r\n\r\n        // Function body\r\n        _;\r\n\r\n        // Set the value back\r\n        _guardValue = 0;\r\n    }\r\n}\r\n\r\n\r\n/*\r\n\r\n  Copyright 2017 Loopring Project Ltd (Loopring Foundation).\r\n\r\n  Licensed under the Apache License, Version 2.0 (the \"License\");\r\n  you may not use this file except in compliance with the License.\r\n  You may obtain a copy of the License at\r\n\r\n  http://www.apache.org/licenses/LICENSE-2.0\r\n\r\n  Unless required by applicable law or agreed to in writing, software\r\n  distributed under the License is distributed on an \"AS IS\" BASIS,\r\n  WITHOUT WARRANTIES OR CONDITIONS OF ANY KIND, either express or implied.\r\n  See the License for the specific language governing permissions and\r\n  limitations under the License.\r\n*/\r\n\r\n/// @title IProtocolFeeVault\r\n/// @dev This smart contract manages the distribution of protocol fees.\r\n///     Tokens other than LRC will be sold by TokenSeller,\r\n///     If no TokenSeller is set, the tokens or Ether will be sent to the owner\r\n///     to sell them for LRC by other means such as using a centralized exchange.\r\n///     For LRC token, 70% of them can be withdrawn to the UserStakingPool contract\r\n///     to reward LRC stakers; 20% of them can be withdrawn to the Loopring DAO,\r\n///     and the remaining 10% can be burned to reduce LRC's total supply.\r\ncontract IProtocolFeeVault {\r\n    uint256 public constant REWARD_PERCENTAGE = 70;\r\n    uint256 public constant DAO_PERDENTAGE = 20;\r\n\r\n    address public userStakingPoolAddress;\r\n    address public lrcAddress;\r\n    address public tokenSellerAddress;\r\n    address public daoAddress;\r\n\r\n    uint256 claimedReward;\r\n    uint256 claimedDAOFund;\r\n    uint256 claimedBurn;\r\n\r\n    event LRCClaimed(uint256 amount);\r\n    event DAOFunded(uint256 amountDAO, uint256 amountBurn);\r\n    event TokenSold(address token, uint256 amount);\r\n    event SettingsUpdated(uint256 time);\r\n\r\n    /// @dev Sets depdending contract address. All these addresses can be zero.\r\n    /// @param _userStakingPoolAddress The address of the user staking pool.\r\n    /// @param _tokenSellerAddress The address of the token seller.\r\n    /// @param _daoAddress The address of the DAO contract.\r\n    function updateSettings(\r\n        address _userStakingPoolAddress,\r\n        address _tokenSellerAddress,\r\n        address _daoAddress\r\n    ) external;\r\n\r\n    /// @dev Claims LRC as staking reward to the IUserStakingPool contract.\r\n    ///      Note that this function can only be called by\r\n    ///      the IUserStakingPool contract.\r\n    ///\r\n    /// @param amount The amount of LRC to be claimed.\r\n    function claimStakingReward(uint256 amount) external;\r\n\r\n    /// @dev Withdraws LRC to DAO and in the meanwhile burn some LRC according to\r\n    ///      the predefined percentages.\r\n    function fundDAO() external;\r\n\r\n    /// @dev Sells a non-LRC token or Ether to LRC. If no TokenSeller is set,\r\n    ///      the tokens or Ether will be sent to the owner.\r\n    /// @param token The token or ether (0x0) to sell.\r\n    /// @param amount THe amout of token/ether to sell.\r\n    function sellTokenForLRC(address token, uint256 amount) external;\r\n\r\n    /// @dev Returns some global stats regarding fees.\r\n    /// @return accumulatedFees The accumulated amount of LRC protocol fees.\r\n    /// @return accumulatedBurn The accumulated amount of LRC to burn.\r\n    /// @return accumulatedDAOFund The accumulated amount of LRC as developer pool.\r\n    /// @return accumulatedReward The accumulated amount of LRC as staking reward.\r\n    /// @return remainingFees The remaining amount of LRC protocol fees.\r\n    /// @return remainingBurn The remaining amount of LRC to burn.\r\n    /// @return remainingDAOFund The remaining amount of LRC as developer pool.\r\n    /// @return remainingReward The remaining amount of LRC as staking reward.\r\n    function getProtocolFeeStats()\r\n        public\r\n        view\r\n        returns (\r\n            uint256 accumulatedFees,\r\n            uint256 accumulatedBurn,\r\n            uint256 accumulatedDAOFund,\r\n            uint256 accumulatedReward,\r\n            uint256 remainingFees,\r\n            uint256 remainingBurn,\r\n            uint256 remainingDAOFund,\r\n            uint256 remainingReward\r\n        );\r\n}\r\n\r\n\r\n/*\r\n\r\n  Copyright 2017 Loopring Project Ltd (Loopring Foundation).\r\n\r\n  Licensed under the Apache License, Version 2.0 (the \"License\");\r\n  you may not use this file except in compliance with the License.\r\n  You may obtain a copy of the License at\r\n\r\n  http://www.apache.org/licenses/LICENSE-2.0\r\n\r\n  Unless required by applicable law or agreed to in writing, software\r\n  distributed under the License is distributed on an \"AS IS\" BASIS,\r\n  WITHOUT WARRANTIES OR CONDITIONS OF ANY KIND, either express or implied.\r\n  See the License for the specific language governing permissions and\r\n  limitations under the License.\r\n*/\r\n\r\n/// @title ITokenSeller\r\n/// @dev Use this contract to sell tokenS for as many tokenB.\r\n/// @author Daniel Wang  - <daniel@loopring.org>\r\ncontract ITokenSeller {\r\n    /// @dev Sells all tokenS for tokenB\r\n    /// @param tokenS The token or Ether (0x0) to sell.\r\n    /// @param tokenB The token to buy.\r\n    /// @return success True if success, false otherwise.\r\n    function sellToken(address tokenS, address tokenB)\r\n        external\r\n        payable\r\n        returns (bool success);\r\n}\r\n\r\n\r\n/// @title An Implementation of IProtocolFeeVault.\r\n/// @author Daniel Wang - <daniel@loopring.org>\r\ncontract ProtocolFeeVault is Claimable, ReentrancyGuard, IProtocolFeeVault {\r\n    using AddressUtil for address;\r\n    using AddressUtil for address payable;\r\n    using ERC20SafeTransfer for address;\r\n    using MathUint for uint256;\r\n\r\n    constructor(address _lrcAddress) public Claimable() {\r\n        require(_lrcAddress != address(0), \"ZERO_ADDRESS\");\r\n        lrcAddress = _lrcAddress;\r\n    }\r\n\r\n    function() external payable {}\r\n\r\n    function updateSettings(\r\n        address _userStakingPoolAddress,\r\n        address _tokenSellerAddress,\r\n        address _daoAddress\r\n    ) external nonReentrant onlyOwner {\r\n        require(\r\n            userStakingPoolAddress != _userStakingPoolAddress ||\r\n                tokenSellerAddress != _tokenSellerAddress ||\r\n                daoAddress != _daoAddress,\r\n            \"SAME_ADDRESSES\"\r\n        );\r\n        userStakingPoolAddress = _userStakingPoolAddress;\r\n        tokenSellerAddress = _tokenSellerAddress;\r\n        daoAddress = _daoAddress;\r\n\r\n        emit SettingsUpdated(now);\r\n    }\r\n\r\n    function claimStakingReward(uint256 amount) external nonReentrant {\r\n        require(amount > 0, \"ZERO_VALUE\");\r\n        require(msg.sender == userStakingPoolAddress, \"UNAUTHORIZED\");\r\n        lrcAddress.safeTransferAndVerify(userStakingPoolAddress, amount);\r\n        claimedReward = claimedReward.add(amount);\r\n        emit LRCClaimed(amount);\r\n    }\r\n\r\n    function fundDAO() external nonReentrant {\r\n        uint256 amountDAO;\r\n        uint256 amountBurn;\r\n        (, , , , , amountBurn, amountDAO, ) = getProtocolFeeStats();\r\n\r\n        address recipient = daoAddress == address(0) ? owner : daoAddress;\r\n\r\n        if (amountDAO > 0) {\r\n            lrcAddress.safeTransferAndVerify(recipient, amountDAO);\r\n        }\r\n\r\n        if (amountBurn > 0) {\r\n            require(BurnableERC20(lrcAddress).burn(amountBurn), \"BURN_FAILURE\");\r\n        }\r\n\r\n        claimedBurn = claimedBurn.add(amountBurn);\r\n        claimedDAOFund = claimedDAOFund.add(amountDAO);\r\n\r\n        emit DAOFunded(amountDAO, amountBurn);\r\n    }\r\n\r\n    function sellTokenForLRC(address token, uint256 amount)\r\n        external\r\n        nonReentrant\r\n    {\r\n        require(amount > 0, \"ZERO_AMOUNT\");\r\n        require(token != lrcAddress, \"PROHIBITED\");\r\n\r\n        address recipient = tokenSellerAddress == address(0)\r\n            ? owner\r\n            : tokenSellerAddress;\r\n\r\n        if (token == address(0)) {\r\n            recipient.sendETHAndVerify(amount, gasleft());\r\n        } else {\r\n            token.safeTransferAndVerify(recipient, amount);\r\n        }\r\n\r\n        require(\r\n            tokenSellerAddress == address(0) ||\r\n                ITokenSeller(tokenSellerAddress).sellToken(token, lrcAddress),\r\n            \"SELL_FAILURE\"\r\n        );\r\n\r\n        emit TokenSold(token, amount);\r\n    }\r\n\r\n    function getProtocolFeeStats()\r\n        public\r\n        view\r\n        returns (\r\n            uint256 accumulatedFees,\r\n            uint256 accumulatedBurn,\r\n            uint256 accumulatedDAOFund,\r\n            uint256 accumulatedReward,\r\n            uint256 remainingFees,\r\n            uint256 remainingBurn,\r\n            uint256 remainingDAOFund,\r\n            uint256 remainingReward\r\n        )\r\n    {\r\n        remainingFees = ERC20(lrcAddress).balanceOf(address(this));\r\n        accumulatedFees = remainingFees\r\n            .add(claimedReward)\r\n            .add(claimedDAOFund)\r\n            .add(claimedBurn);\r\n\r\n        accumulatedReward = accumulatedFees.mul(REWARD_PERCENTAGE) / 100;\r\n        accumulatedDAOFund = accumulatedFees.mul(DAO_PERDENTAGE) / 100;\r\n        accumulatedBurn = accumulatedFees.sub(accumulatedReward).sub(\r\n            accumulatedDAOFund\r\n        );\r\n\r\n        remainingReward = accumulatedReward.sub(claimedReward);\r\n        remainingDAOFund = accumulatedDAOFund.sub(claimedDAOFund);\r\n        remainingBurn = accumulatedBurn.sub(claimedBurn);\r\n    }\r\n}\r\n",
  "sourcePath": "C:\\Users\\kudla\\dev\\loopring-staking\\eth\\contracts\\LRC_ProtocolFeeVault.sol",
  "compiler": {
    "name": "solc",
    "version": "0.5.16+commit.9c3226ce.Emscripten.clang"
  },
  "schemaVersion": "3.0.23",
  "updatedAt": "2020-04-05T16:27:52.643Z",
  "networkType": "ethereum",
  "devdoc": {
    "author": "Daniel Wang - <daniel@loopring.org>",
    "methods": {
      "claimOwnership()": {
        "details": "Allows the pendingOwner address to finalize the transfer."
      },
      "transferOwnership(address)": {
        "details": "Allows the current owner to set the pendingOwner address.",
        "params": {
          "newOwner": "The address to transfer ownership to."
        }
      }
    },
    "title": "An Implementation of IProtocolFeeVault."
  },
  "userdoc": {
    "methods": {}
  }
}