{
  "contractName": "UserStakingPool",
  "abi": [
    {
      "inputs": [
        {
          "internalType": "address",
          "name": "_lrcAddress",
          "type": "address"
        }
      ],
      "payable": false,
      "stateMutability": "nonpayable",
      "type": "constructor"
    },
    {
      "anonymous": false,
      "inputs": [
        {
          "indexed": true,
          "internalType": "address",
          "name": "user",
          "type": "address"
        },
        {
          "indexed": false,
          "internalType": "uint256",
          "name": "amount",
          "type": "uint256"
        }
      ],
      "name": "LRCRewarded",
      "type": "event"
    },
    {
      "anonymous": false,
      "inputs": [
        {
          "indexed": true,
          "internalType": "address",
          "name": "user",
          "type": "address"
        },
        {
          "indexed": false,
          "internalType": "uint256",
          "name": "amount",
          "type": "uint256"
        }
      ],
      "name": "LRCStaked",
      "type": "event"
    },
    {
      "anonymous": false,
      "inputs": [
        {
          "indexed": true,
          "internalType": "address",
          "name": "user",
          "type": "address"
        },
        {
          "indexed": false,
          "internalType": "uint256",
          "name": "amount",
          "type": "uint256"
        }
      ],
      "name": "LRCWithdrawn",
      "type": "event"
    },
    {
      "anonymous": false,
      "inputs": [
        {
          "indexed": true,
          "internalType": "address",
          "name": "previousOwner",
          "type": "address"
        },
        {
          "indexed": true,
          "internalType": "address",
          "name": "newOwner",
          "type": "address"
        }
      ],
      "name": "OwnershipTransferred",
      "type": "event"
    },
    {
      "anonymous": false,
      "inputs": [
        {
          "indexed": false,
          "internalType": "address",
          "name": "feeVaultAddress",
          "type": "address"
        }
      ],
      "name": "ProtocolFeeVaultChanged",
      "type": "event"
    },
    {
      "constant": true,
      "inputs": [],
      "name": "MIN_CLAIM_DELAY",
      "outputs": [
        {
          "internalType": "uint256",
          "name": "",
          "type": "uint256"
        }
      ],
      "payable": false,
      "stateMutability": "view",
      "type": "function"
    },
    {
      "constant": true,
      "inputs": [],
      "name": "MIN_WITHDRAW_DELAY",
      "outputs": [
        {
          "internalType": "uint256",
          "name": "",
          "type": "uint256"
        }
      ],
      "payable": false,
      "stateMutability": "view",
      "type": "function"
    },
    {
      "constant": false,
      "inputs": [],
      "name": "claimOwnership",
      "outputs": [],
      "payable": false,
      "stateMutability": "nonpayable",
      "type": "function"
    },
    {
      "constant": true,
      "inputs": [],
      "name": "lrcAddress",
      "outputs": [
        {
          "internalType": "address",
          "name": "",
          "type": "address"
        }
      ],
      "payable": false,
      "stateMutability": "view",
      "type": "function"
    },
    {
      "constant": true,
      "inputs": [],
      "name": "numAddresses",
      "outputs": [
        {
          "internalType": "uint256",
          "name": "",
          "type": "uint256"
        }
      ],
      "payable": false,
      "stateMutability": "view",
      "type": "function"
    },
    {
      "constant": true,
      "inputs": [],
      "name": "owner",
      "outputs": [
        {
          "internalType": "address",
          "name": "",
          "type": "address"
        }
      ],
      "payable": false,
      "stateMutability": "view",
      "type": "function"
    },
    {
      "constant": true,
      "inputs": [],
      "name": "pendingOwner",
      "outputs": [
        {
          "internalType": "address",
          "name": "",
          "type": "address"
        }
      ],
      "payable": false,
      "stateMutability": "view",
      "type": "function"
    },
    {
      "constant": true,
      "inputs": [],
      "name": "protocolFeeVaultAddress",
      "outputs": [
        {
          "internalType": "address",
          "name": "",
          "type": "address"
        }
      ],
      "payable": false,
      "stateMutability": "view",
      "type": "function"
    },
    {
      "constant": false,
      "inputs": [],
      "name": "renounceOwnership",
      "outputs": [],
      "payable": false,
      "stateMutability": "nonpayable",
      "type": "function"
    },
    {
      "constant": true,
      "inputs": [
        {
          "internalType": "address",
          "name": "",
          "type": "address"
        }
      ],
      "name": "stakings",
      "outputs": [
        {
          "internalType": "uint256",
          "name": "balance",
          "type": "uint256"
        },
        {
          "internalType": "uint64",
          "name": "depositedAt",
          "type": "uint64"
        },
        {
          "internalType": "uint64",
          "name": "claimedAt",
          "type": "uint64"
        }
      ],
      "payable": false,
      "stateMutability": "view",
      "type": "function"
    },
    {
      "constant": true,
      "inputs": [],
      "name": "total",
      "outputs": [
        {
          "internalType": "uint256",
          "name": "balance",
          "type": "uint256"
        },
        {
          "internalType": "uint64",
          "name": "depositedAt",
          "type": "uint64"
        },
        {
          "internalType": "uint64",
          "name": "claimedAt",
          "type": "uint64"
        }
      ],
      "payable": false,
      "stateMutability": "view",
      "type": "function"
    },
    {
      "constant": false,
      "inputs": [
        {
          "internalType": "address",
          "name": "newOwner",
          "type": "address"
        }
      ],
      "name": "transferOwnership",
      "outputs": [],
      "payable": false,
      "stateMutability": "nonpayable",
      "type": "function"
    },
    {
      "constant": false,
      "inputs": [
        {
          "internalType": "address",
          "name": "_protocolFeeVaultAddress",
          "type": "address"
        }
      ],
      "name": "setProtocolFeeVault",
      "outputs": [],
      "payable": false,
      "stateMutability": "nonpayable",
      "type": "function"
    },
    {
      "constant": true,
      "inputs": [],
      "name": "getTotalStaking",
      "outputs": [
        {
          "internalType": "uint256",
          "name": "",
          "type": "uint256"
        }
      ],
      "payable": false,
      "stateMutability": "view",
      "type": "function"
    },
    {
      "constant": true,
      "inputs": [
        {
          "internalType": "address",
          "name": "user",
          "type": "address"
        }
      ],
      "name": "getUserStaking",
      "outputs": [
        {
          "internalType": "uint256",
          "name": "withdrawalWaitTime",
          "type": "uint256"
        },
        {
          "internalType": "uint256",
          "name": "rewardWaitTime",
          "type": "uint256"
        },
        {
          "internalType": "uint256",
          "name": "balance",
          "type": "uint256"
        },
        {
          "internalType": "uint256",
          "name": "pendingReward",
          "type": "uint256"
        }
      ],
      "payable": false,
      "stateMutability": "view",
      "type": "function"
    },
    {
      "constant": false,
      "inputs": [
        {
          "internalType": "uint256",
          "name": "amount",
          "type": "uint256"
        }
      ],
      "name": "stake",
      "outputs": [],
      "payable": false,
      "stateMutability": "nonpayable",
      "type": "function"
    },
    {
      "constant": false,
      "inputs": [
        {
          "internalType": "uint256",
          "name": "amount",
          "type": "uint256"
        }
      ],
      "name": "withdraw",
      "outputs": [],
      "payable": false,
      "stateMutability": "nonpayable",
      "type": "function"
    },
    {
      "constant": false,
      "inputs": [],
      "name": "claim",
      "outputs": [
        {
          "internalType": "uint256",
          "name": "claimedAmount",
          "type": "uint256"
        }
      ],
      "payable": false,
      "stateMutability": "nonpayable",
      "type": "function"
    }
  ],
  "bytecode": "0x608060405234801561001057600080fd5b506040516126a13803806126a18339818101604052602081101561003357600080fd5b8101908080519060200190929190505050336000806101000a81548173ffffffffffffffffffffffffffffffffffffffff021916908373ffffffffffffffffffffffffffffffffffffffff160217905550600073ffffffffffffffffffffffffffffffffffffffff168173ffffffffffffffffffffffffffffffffffffffff161415610127576040517f08c379a000000000000000000000000000000000000000000000000000000000815260040180806020018281038252600c8152602001807f5a45524f5f41444452455353000000000000000000000000000000000000000081525060200191505060405180910390fd5b80600360006101000a81548173ffffffffffffffffffffffffffffffffffffffff021916908373ffffffffffffffffffffffffffffffffffffffff16021790555050612529806101786000396000f3fe608060405234801561001057600080fd5b50600436106101165760003560e01c8063715018a6116100a2578063ae15943911610071578063ae1594391461039c578063c730eca4146103ba578063dc6e13e114610404578063e30c397814610492578063f2fde38b146104dc57610116565b8063715018a6146102d657806388e95c47146102e05780638da5cb5b14610324578063a694fc3a1461036e57610116565b80633d6cf722116100e95780633d6cf722146102285780634e71d92d146102725780634e71e0c81461029057806358d575451461029a57806361605b92146102b857610116565b80630c0fd5491461011b5780632ddbd13a146101885780632e1a7d4d146101dc5780632f8646d61461020a575b600080fd5b61015d6004803603602081101561013157600080fd5b81019080803573ffffffffffffffffffffffffffffffffffffffff169060200190929190505050610520565b6040518085815260200184815260200183815260200182815260200194505050505060405180910390f35b61019061059a565b604051808481526020018367ffffffffffffffff1667ffffffffffffffff1681526020018267ffffffffffffffff1667ffffffffffffffff168152602001935050505060405180910390f35b610208600480360360208110156101f257600080fd5b81019080803590602001909291905050506105da565b005b6102126109b3565b6040518082815260200191505060405180910390f35b6102306109b9565b604051808273ffffffffffffffffffffffffffffffffffffffff1673ffffffffffffffffffffffffffffffffffffffff16815260200191505060405180910390f35b61027a6109df565b6040518082815260200191505060405180910390f35b610298610a75565b005b6102a2610c7b565b6040518082815260200191505060405180910390f35b6102c0610c88565b6040518082815260200191505060405180910390f35b6102de610c8f565b005b610322600480360360208110156102f657600080fd5b81019080803573ffffffffffffffffffffffffffffffffffffffff169060200190929190505050610e10565b005b61032c611023565b604051808273ffffffffffffffffffffffffffffffffffffffff1673ffffffffffffffffffffffffffffffffffffffff16815260200191505060405180910390f35b61039a6004803603602081101561038457600080fd5b8101908080359060200190929190505050611048565b005b6103a4611445565b6040518082815260200191505060405180910390f35b6103c261144c565b604051808273ffffffffffffffffffffffffffffffffffffffff1673ffffffffffffffffffffffffffffffffffffffff16815260200191505060405180910390f35b6104466004803603602081101561041a57600080fd5b81019080803573ffffffffffffffffffffffffffffffffffffffff169060200190929190505050611472565b604051808481526020018367ffffffffffffffff1667ffffffffffffffff1681526020018267ffffffffffffffff1667ffffffffffffffff168152602001935050505060405180910390f35b61049a6114c4565b604051808273ffffffffffffffffffffffffffffffffffffffff1673ffffffffffffffffffffffffffffffffffffffff16815260200191505060405180910390f35b61051e600480360360208110156104f257600080fd5b81019080803573ffffffffffffffffffffffffffffffffffffffff1690602001909291905050506114ea565b005b60008060008061052f856116ec565b935061053a8561179e565b9250600860008673ffffffffffffffffffffffffffffffffffffffff1673ffffffffffffffffffffffffffffffffffffffff16815260200190815260200160002060000154915061058a856118b0565b9091509050809150509193509193565b60068060000154908060010160009054906101000a900467ffffffffffffffff16908060010160089054906101000a900467ffffffffffffffff16905083565b600060025414610652576040517f08c379a000000000000000000000000000000000000000000000000000000000815260040180806020018281038252600a8152602001807f5245454e5452414e43590000000000000000000000000000000000000000000081525060200191505060405180910390fd5b60016002819055506000610665336116ec565b146106d8576040517f08c379a000000000000000000000000000000000000000000000000000000000815260040180806020018281038252600c8152602001807f4e4545445f544f5f57414954000000000000000000000000000000000000000081525060200191505060405180910390fd5b600073ffffffffffffffffffffffffffffffffffffffff16600460009054906101000a900473ffffffffffffffffffffffffffffffffffffffff1673ffffffffffffffffffffffffffffffffffffffff161415801561073f5750600061073d3361179e565b145b1561074e5761074c611b5d565b505b6000600860003373ffffffffffffffffffffffffffffffffffffffff1673ffffffffffffffffffffffffffffffffffffffff16815260200190815260200160002090506000808314806107a45750816000015483115b6107ae57826107b4565b81600001545b90506000811161082c576040517f08c379a000000000000000000000000000000000000000000000000000000000815260040180806020018281038252600c8152602001807f5a45524f5f42414c414e4345000000000000000000000000000000000000000081525060200191505060405180910390fd5b61084481600660000154611eb090919063ffffffff16565b600660000181905550610864818360000154611eb090919063ffffffff16565b826000018190555060008260000154141561090b576001600560008282540392505081905550600860003373ffffffffffffffffffffffffffffffffffffffff1673ffffffffffffffffffffffffffffffffffffffff1681526020019081526020016000206000808201600090556001820160006101000a81549067ffffffffffffffff02191690556001820160086101000a81549067ffffffffffffffff021916905550505b6109583382600360009054906101000a900473ffffffffffffffffffffffffffffffffffffffff1673ffffffffffffffffffffffffffffffffffffffff16611f339092919063ffffffff16565b3373ffffffffffffffffffffffffffffffffffffffff167f2958029af76592f61d851f6d7c7456b3d9ae7536e7dc715c408fe02cd06c4651826040518082815260200191505060405180910390a25050600060028190555050565b60055481565b600360009054906101000a900473ffffffffffffffffffffffffffffffffffffffff1681565b60008060025414610a58576040517f08c379a000000000000000000000000000000000000000000000000000000000815260040180806020018281038252600a8152602001807f5245454e5452414e43590000000000000000000000000000000000000000000081525060200191505060405180910390fd5b6001600281905550610a68611b5d565b9050600060028190555090565b600160009054906101000a900473ffffffffffffffffffffffffffffffffffffffff1673ffffffffffffffffffffffffffffffffffffffff163373ffffffffffffffffffffffffffffffffffffffff1614610b38576040517f08c379a000000000000000000000000000000000000000000000000000000000815260040180806020018281038252600c8152602001807f554e415554484f52495a4544000000000000000000000000000000000000000081525060200191505060405180910390fd5b600160009054906101000a900473ffffffffffffffffffffffffffffffffffffffff1673ffffffffffffffffffffffffffffffffffffffff166000809054906101000a900473ffffffffffffffffffffffffffffffffffffffff1673ffffffffffffffffffffffffffffffffffffffff167f8be0079c531659141344cd1fd0a4f28419497f9722a3daafe3b4186f6b6457e060405160405180910390a3600160009054906101000a900473ffffffffffffffffffffffffffffffffffffffff166000806101000a81548173ffffffffffffffffffffffffffffffffffffffff021916908373ffffffffffffffffffffffffffffffffffffffff1602179055506000600160006101000a81548173ffffffffffffffffffffffffffffffffffffffff021916908373ffffffffffffffffffffffffffffffffffffffff160217905550565b6000600660000154905090565b6276a70081565b6000809054906101000a900473ffffffffffffffffffffffffffffffffffffffff1673ffffffffffffffffffffffffffffffffffffffff163373ffffffffffffffffffffffffffffffffffffffff1614610d51576040517f08c379a000000000000000000000000000000000000000000000000000000000815260040180806020018281038252600c8152602001807f554e415554484f52495a4544000000000000000000000000000000000000000081525060200191505060405180910390fd5b600073ffffffffffffffffffffffffffffffffffffffff166000809054906101000a900473ffffffffffffffffffffffffffffffffffffffff1673ffffffffffffffffffffffffffffffffffffffff167f8be0079c531659141344cd1fd0a4f28419497f9722a3daafe3b4186f6b6457e060405160405180910390a360008060006101000a81548173ffffffffffffffffffffffffffffffffffffffff021916908373ffffffffffffffffffffffffffffffffffffffff160217905550565b600060025414610e88576040517f08c379a000000000000000000000000000000000000000000000000000000000815260040180806020018281038252600a8152602001807f5245454e5452414e43590000000000000000000000000000000000000000000081525060200191505060405180910390fd5b60016002819055506000809054906101000a900473ffffffffffffffffffffffffffffffffffffffff1673ffffffffffffffffffffffffffffffffffffffff163373ffffffffffffffffffffffffffffffffffffffff1614610f52576040517f08c379a000000000000000000000000000000000000000000000000000000000815260040180806020018281038252600c8152602001807f554e415554484f52495a4544000000000000000000000000000000000000000081525060200191505060405180910390fd5b80600460006101000a81548173ffffffffffffffffffffffffffffffffffffffff021916908373ffffffffffffffffffffffffffffffffffffffff1602179055507fb3b08642421ba31da9df792b3dbe9f52ff071894103ba3b1c4317b2daf33736c600460009054906101000a900473ffffffffffffffffffffffffffffffffffffffff16604051808273ffffffffffffffffffffffffffffffffffffffff1673ffffffffffffffffffffffffffffffffffffffff16815260200191505060405180910390a1600060028190555050565b6000809054906101000a900473ffffffffffffffffffffffffffffffffffffffff1681565b6000600254146110c0576040517f08c379a000000000000000000000000000000000000000000000000000000000815260040180806020018281038252600a8152602001807f5245454e5452414e43590000000000000000000000000000000000000000000081525060200191505060405180910390fd5b60016002819055506000811161113e576040517f08c379a000000000000000000000000000000000000000000000000000000000815260040180806020018281038252600a8152602001807f5a45524f5f56414c55450000000000000000000000000000000000000000000081525060200191505060405180910390fd5b61118d333083600360009054906101000a900473ffffffffffffffffffffffffffffffffffffffff1673ffffffffffffffffffffffffffffffffffffffff16611f44909392919063ffffffff16565b6000600860003373ffffffffffffffffffffffffffffffffffffffff1673ffffffffffffffffffffffffffffffffffffffff16815260200190815260200160002090506000816000015414156111ef5760016005600082825401925050819055505b6000611208838360000154611f5790919063ffffffff16565b9050806112686112214286611fda90919063ffffffff16565b61125a8560010160009054906101000a900467ffffffffffffffff1667ffffffffffffffff168660000154611fda90919063ffffffff16565b611f5790919063ffffffff16565b8161126f57fe5b048260010160006101000a81548167ffffffffffffffff021916908367ffffffffffffffff160217905550806112f86112b14286611fda90919063ffffffff16565b6112ea8560010160089054906101000a900467ffffffffffffffff1667ffffffffffffffff168660000154611fda90919063ffffffff16565b611f5790919063ffffffff16565b816112ff57fe5b048260010160086101000a81548167ffffffffffffffff021916908367ffffffffffffffff16021790555080826000018190555061134b83600660000154611f5790919063ffffffff16565b9050806113ad6113644286611fda90919063ffffffff16565b61139f600660010160089054906101000a900467ffffffffffffffff1667ffffffffffffffff16600660000154611fda90919063ffffffff16565b611f5790919063ffffffff16565b816113b457fe5b04600660010160086101000a81548167ffffffffffffffff021916908367ffffffffffffffff160217905550806006600001819055503373ffffffffffffffffffffffffffffffffffffffff167f7bcf38427a7f7fc25e271d30f03522e51794ec2ba24df0703481c2b7222ced4e846040518082815260200191505060405180910390a25050600060028190555050565b6276a70081565b600460009054906101000a900473ffffffffffffffffffffffffffffffffffffffff1681565b60086020528060005260406000206000915090508060000154908060010160009054906101000a900467ffffffffffffffff16908060010160089054906101000a900467ffffffffffffffff16905083565b600160009054906101000a900473ffffffffffffffffffffffffffffffffffffffff1681565b6000809054906101000a900473ffffffffffffffffffffffffffffffffffffffff1673ffffffffffffffffffffffffffffffffffffffff163373ffffffffffffffffffffffffffffffffffffffff16146115ac576040517f08c379a000000000000000000000000000000000000000000000000000000000815260040180806020018281038252600c8152602001807f554e415554484f52495a4544000000000000000000000000000000000000000081525060200191505060405180910390fd5b600073ffffffffffffffffffffffffffffffffffffffff168173ffffffffffffffffffffffffffffffffffffffff161415801561163657506000809054906101000a900473ffffffffffffffffffffffffffffffffffffffff1673ffffffffffffffffffffffffffffffffffffffff168173ffffffffffffffffffffffffffffffffffffffff1614155b6116a8576040517f08c379a000000000000000000000000000000000000000000000000000000000815260040180806020018281038252600f8152602001807f494e56414c49445f41444452455353000000000000000000000000000000000081525060200191505060405180910390fd5b80600160006101000a81548173ffffffffffffffffffffffffffffffffffffffff021916908373ffffffffffffffffffffffffffffffffffffffff16021790555050565b600080600860008473ffffffffffffffffffffffffffffffffffffffff1673ffffffffffffffffffffffffffffffffffffffff16815260200190815260200160002060010160009054906101000a900467ffffffffffffffff1667ffffffffffffffff1690506000811415611767576276a700915050611799565b60006276a70082019050428111156117915761178c4282611eb090919063ffffffff16565b611794565b60005b925050505b919050565b600080600860008473ffffffffffffffffffffffffffffffffffffffff1673ffffffffffffffffffffffffffffffffffffffff16815260200190815260200160002060010160089054906101000a900467ffffffffffffffff1667ffffffffffffffff1690506000811415611819576276a7009150506118ab565b60006276a700600860008673ffffffffffffffffffffffffffffffffffffffff1673ffffffffffffffffffffffffffffffffffffffff16815260200190815260200160002060010160089054906101000a900467ffffffffffffffff1667ffffffffffffffff16019050428111156118a35761189e4282611eb090919063ffffffff16565b6118a6565b60005b925050505b919050565b600080600080600860008673ffffffffffffffffffffffffffffffffffffffff1673ffffffffffffffffffffffffffffffffffffffff16815260200190815260200160002090506119576119436001611935600660010160089054906101000a900467ffffffffffffffff1667ffffffffffffffff1642611eb090919063ffffffff16565b611f5790919063ffffffff16565b600660000154611fda90919063ffffffff16565b93506119a46119918260010160089054906101000a900467ffffffffffffffff1667ffffffffffffffff1642611eb090919063ffffffff16565b8260000154611fda90919063ffffffff16565b9250828410156119b2578392505b600073ffffffffffffffffffffffffffffffffffffffff16600460009054906101000a900473ffffffffffffffffffffffffffffffffffffffff1673ffffffffffffffffffffffffffffffffffffffff1614158015611a12575060008414155b8015611a1f575060008314155b15611b5557600460009054906101000a900473ffffffffffffffffffffffffffffffffffffffff1673ffffffffffffffffffffffffffffffffffffffff1663365a906c6040518163ffffffff1660e01b81526004016101006040518083038186803b158015611a8d57600080fd5b505afa158015611aa1573d6000803e3d6000fd5b505050506040513d610100811015611ab857600080fd5b81019080805190602001909291908051906020019092919080519060200190929190805190602001909291908051906020019092919080519060200190929190805190602001909291908051906020019092919050505090919293949596509091929394955090919293945090919293509091925090915090508092505083611b4a8484611fda90919063ffffffff16565b81611b5157fe5b0491505b509193909250565b60008073ffffffffffffffffffffffffffffffffffffffff16600460009054906101000a900473ffffffffffffffffffffffffffffffffffffffff1673ffffffffffffffffffffffffffffffffffffffff161415611c23576040517f08c379a000000000000000000000000000000000000000000000000000000000815260040180806020018281038252600c8152602001807f5a45524f5f41444452455353000000000000000000000000000000000000000081525060200191505060405180910390fd5b6000611c2e3361179e565b14611ca1576040517f08c379a000000000000000000000000000000000000000000000000000000000815260040180806020018281038252600c8152602001807f4e4545445f544f5f57414954000000000000000000000000000000000000000081525060200191505060405180910390fd5b600080611cad336118b0565b8095508193508294505050506000831115611e5d57600460009054906101000a900473ffffffffffffffffffffffffffffffffffffffff1673ffffffffffffffffffffffffffffffffffffffff1663239cd4a4846040518263ffffffff1660e01b815260040180828152602001915050600060405180830381600087803b158015611d3757600080fd5b505af1158015611d4b573d6000803e3d6000fd5b50505050611d6783600660000154611f5790919063ffffffff16565b600660000181905550611da3600660000154611d8c8385611eb090919063ffffffff16565b81611d9357fe5b0442611eb090919063ffffffff16565b600660010160086101000a81548167ffffffffffffffff021916908367ffffffffffffffff1602179055506000600860003373ffffffffffffffffffffffffffffffffffffffff1673ffffffffffffffffffffffffffffffffffffffff1681526020019081526020016000209050611e28848260000154611f5790919063ffffffff16565b8160000181905550428160010160086101000a81548167ffffffffffffffff021916908367ffffffffffffffff160217905550505b3373ffffffffffffffffffffffffffffffffffffffff167ffaa4a7e6a2ecb2217533f3081ad082d42261efe260c8842dd32a5ebb72011b78846040518082815260200191505060405180910390a2505090565b600082821115611f28576040517f08c379a000000000000000000000000000000000000000000000000000000000815260040180806020018281038252600d8152602001807f5355425f554e444552464c4f570000000000000000000000000000000000000081525060200191505060405180910390fd5b818303905092915050565b611f3f8383835a612070565b505050565b611f51848484845a6120f4565b50505050565b6000818301905082811015611fd4576040517f08c379a000000000000000000000000000000000000000000000000000000000815260040180806020018281038252600c8152602001807f4144445f4f564552464c4f57000000000000000000000000000000000000000081525060200191505060405180910390fd5b92915050565b600081830290506000831480611ff8575081838281611ff557fe5b04145b61206a576040517f08c379a000000000000000000000000000000000000000000000000000000000815260040180806020018281038252600c8152602001807f4d554c5f4f564552464c4f57000000000000000000000000000000000000000081525060200191505060405180910390fd5b92915050565b61207c84848484612180565b6120ee576040517f08c379a00000000000000000000000000000000000000000000000000000000081526004018080602001828103825260108152602001807f5452414e534645525f4641494c5552450000000000000000000000000000000081525060200191505060405180910390fd5b50505050565b600061210386868686866122ff565b905080612178576040517f08c379a00000000000000000000000000000000000000000000000000000000081526004018080602001828103825260108152602001807f5452414e534645525f4641494c5552450000000000000000000000000000000081525060200191505060405180910390fd5b505050505050565b6000606063a9059cbb60e01b8585604051602401808373ffffffffffffffffffffffffffffffffffffffff1673ffffffffffffffffffffffffffffffffffffffff16815260200182815260200192505050604051602081830303815290604052907bffffffffffffffffffffffffffffffffffffffffffffffffffffffff19166020820180517bffffffffffffffffffffffffffffffffffffffffffffffffffffffff8381831617835250505050905060008673ffffffffffffffffffffffffffffffffffffffff1684836040518082805190602001908083835b6020831061227e578051825260208201915060208101905060208303925061225b565b6001836020036101000a03801982511681845116808217855250505050505090500191505060006040518083038160008787f1925050503d80600081146122e1576040519150601f19603f3d011682016040523d82523d6000602084013e6122e6565b606091505b505090506122f3816124b3565b92505050949350505050565b600060606323b872dd60e01b868686604051602401808473ffffffffffffffffffffffffffffffffffffffff1673ffffffffffffffffffffffffffffffffffffffff1681526020018373ffffffffffffffffffffffffffffffffffffffff1673ffffffffffffffffffffffffffffffffffffffff1681526020018281526020019350505050604051602081830303815290604052907bffffffffffffffffffffffffffffffffffffffffffffffffffffffff19166020820180517bffffffffffffffffffffffffffffffffffffffffffffffffffffffff8381831617835250505050905060008773ffffffffffffffffffffffffffffffffffffffff1684836040518082805190602001908083835b60208310612431578051825260208201915060208101905060208303925061240e565b6001836020036101000a03801982511681845116808217855250505050505090500191505060006040518083038160008787f1925050503d8060008114612494576040519150601f19603f3d011682016040523d82523d6000602084013e612499565b606091505b505090506124a6816124b3565b9250505095945050505050565b600081156124ec573d600081146124d557602081146124de57600092506124ea565b600192506124ea565b60206000803e60005192505b505b81905091905056fea265627a7a7231582062c89f8f7b074cf6302e9237bfdb55ddd33e9bcd83a4266c1f6779ae6760359a64736f6c63430005100032",
  "source": "/**\r\n *Submitted for verification at Etherscan.io on 2019-11-20\r\n*/\r\n\r\n/**\r\nAuthor: Loopring Foundation (Loopring Project Ltd)\r\n*/\r\npragma solidity ^0.5.11;\r\n\r\ncontract Ownable {\r\n    address public owner;\r\n\r\n    event OwnershipTransferred(\r\n        address indexed previousOwner,\r\n        address indexed newOwner\r\n    );\r\n\r\n    constructor() public {\r\n        owner = msg.sender;\r\n    }\r\n\r\n    modifier onlyOwner() {\r\n        require(msg.sender == owner, \"UNAUTHORIZED\");\r\n        _;\r\n    }\r\n\r\n    function transferOwnership(address newOwner) public onlyOwner {\r\n        require(newOwner != address(0), \"ZERO_ADDRESS\");\r\n        emit OwnershipTransferred(owner, newOwner);\r\n        owner = newOwner;\r\n    }\r\n\r\n    function renounceOwnership() public onlyOwner {\r\n        emit OwnershipTransferred(owner, address(0));\r\n        owner = address(0);\r\n    }\r\n}\r\n\r\ncontract Claimable is Ownable {\r\n    address public pendingOwner;\r\n\r\n    modifier onlyPendingOwner() {\r\n        require(msg.sender == pendingOwner, \"UNAUTHORIZED\");\r\n        _;\r\n    }\r\n\r\n    function transferOwnership(address newOwner) public onlyOwner {\r\n        require(newOwner != address(0) && newOwner != owner, \"INVALID_ADDRESS\");\r\n        pendingOwner = newOwner;\r\n    }\r\n\r\n    function claimOwnership() public onlyPendingOwner {\r\n        emit OwnershipTransferred(owner, pendingOwner);\r\n        owner = pendingOwner;\r\n        pendingOwner = address(0);\r\n    }\r\n}\r\n\r\ncontract ERC20 {\r\n    function totalSupply() public view returns (uint256);\r\n\r\n    function balanceOf(address who) public view returns (uint256);\r\n\r\n    function allowance(address owner, address spender)\r\n        public\r\n        view\r\n        returns (uint256);\r\n\r\n    function transfer(address to, uint256 value) public returns (bool);\r\n\r\n    function transferFrom(address from, address to, uint256 value)\r\n        public\r\n        returns (bool);\r\n\r\n    function approve(address spender, uint256 value) public returns (bool);\r\n}\r\n\r\nlibrary ERC20SafeTransfer {\r\n    function safeTransferAndVerify(address token, address to, uint256 value)\r\n        internal\r\n    {\r\n        safeTransferWithGasLimitAndVerify(token, to, value, gasleft());\r\n    }\r\n\r\n    function safeTransfer(address token, address to, uint256 value)\r\n        internal\r\n        returns (bool)\r\n    {\r\n        return safeTransferWithGasLimit(token, to, value, gasleft());\r\n    }\r\n\r\n    function safeTransferWithGasLimitAndVerify(\r\n        address token,\r\n        address to,\r\n        uint256 value,\r\n        uint256 gasLimit\r\n    ) internal {\r\n        require(\r\n            safeTransferWithGasLimit(token, to, value, gasLimit),\r\n            \"TRANSFER_FAILURE\"\r\n        );\r\n    }\r\n\r\n    function safeTransferWithGasLimit(\r\n        address token,\r\n        address to,\r\n        uint256 value,\r\n        uint256 gasLimit\r\n    ) internal returns (bool) {\r\n        bytes memory callData = abi.encodeWithSelector(\r\n            bytes4(0xa9059cbb),\r\n            to,\r\n            value\r\n        );\r\n        (bool success, ) = token.call.gas(gasLimit)(callData);\r\n        return checkReturnValue(success);\r\n    }\r\n\r\n    function safeTransferFromAndVerify(\r\n        address token,\r\n        address from,\r\n        address to,\r\n        uint256 value\r\n    ) internal {\r\n        safeTransferFromWithGasLimitAndVerify(\r\n            token,\r\n            from,\r\n            to,\r\n            value,\r\n            gasleft()\r\n        );\r\n    }\r\n\r\n    function safeTransferFrom(\r\n        address token,\r\n        address from,\r\n        address to,\r\n        uint256 value\r\n    ) internal returns (bool) {\r\n        return safeTransferFromWithGasLimit(token, from, to, value, gasleft());\r\n    }\r\n\r\n    function safeTransferFromWithGasLimitAndVerify(\r\n        address token,\r\n        address from,\r\n        address to,\r\n        uint256 value,\r\n        uint256 gasLimit\r\n    ) internal {\r\n        bool result = safeTransferFromWithGasLimit(\r\n            token,\r\n            from,\r\n            to,\r\n            value,\r\n            gasLimit\r\n        );\r\n        require(result, \"TRANSFER_FAILURE\");\r\n    }\r\n\r\n    function safeTransferFromWithGasLimit(\r\n        address token,\r\n        address from,\r\n        address to,\r\n        uint256 value,\r\n        uint256 gasLimit\r\n    ) internal returns (bool) {\r\n        bytes memory callData = abi.encodeWithSelector(\r\n            bytes4(0x23b872dd),\r\n            from,\r\n            to,\r\n            value\r\n        );\r\n        (bool success, ) = token.call.gas(gasLimit)(callData);\r\n        return checkReturnValue(success);\r\n    }\r\n\r\n    function checkReturnValue(bool success) internal pure returns (bool) {\r\n        if (success) {\r\n            assembly {\r\n                switch returndatasize\r\n                    case 0 {\r\n                        success := 1\r\n                    }\r\n                    case 32 {\r\n                        returndatacopy(0, 0, 32)\r\n                        success := mload(0)\r\n                    }\r\n                    default {\r\n                        success := 0\r\n                    }\r\n            }\r\n        }\r\n        return success;\r\n    }\r\n}\r\n\r\nlibrary MathUint {\r\n    function mul(uint256 a, uint256 b) internal pure returns (uint256 c) {\r\n        c = a * b;\r\n        require(a == 0 || c / a == b, \"MUL_OVERFLOW\");\r\n    }\r\n\r\n    function sub(uint256 a, uint256 b) internal pure returns (uint256) {\r\n        require(b <= a, \"SUB_UNDERFLOW\");\r\n        return a - b;\r\n    }\r\n\r\n    function add(uint256 a, uint256 b) internal pure returns (uint256 c) {\r\n        c = a + b;\r\n        require(c >= a, \"ADD_OVERFLOW\");\r\n    }\r\n\r\n    function decodeFloat(uint256 f) internal pure returns (uint256 value) {\r\n        uint256 numBitsMantissa = 23;\r\n        uint256 exponent = f >> numBitsMantissa;\r\n        uint256 mantissa = f & ((1 << numBitsMantissa) - 1);\r\n        value = mantissa * (10**exponent);\r\n    }\r\n}\r\n\r\ncontract ReentrancyGuard {\r\n    uint256 private _guardValue;\r\n\r\n    modifier nonReentrant() {\r\n        require(_guardValue == 0, \"REENTRANCY\");\r\n\r\n        _guardValue = 1;\r\n\r\n        _;\r\n\r\n        _guardValue = 0;\r\n    }\r\n}\r\n\r\ncontract IProtocolFeeVault {\r\n    uint256 public constant REWARD_PERCENTAGE = 70;\r\n    uint256 public constant DAO_PERDENTAGE = 20;\r\n\r\n    address public userStakingPoolAddress;\r\n    address public lrcAddress;\r\n    address public tokenSellerAddress;\r\n    address public daoAddress;\r\n\r\n    uint256 claimedReward;\r\n    uint256 claimedDAOFund;\r\n    uint256 claimedBurn;\r\n\r\n    event LRCClaimed(uint256 amount);\r\n    event DAOFunded(uint256 amountDAO, uint256 amountBurn);\r\n    event TokenSold(address token, uint256 amount);\r\n    event SettingsUpdated(uint256 time);\r\n\r\n    function updateSettings(\r\n        address _userStakingPoolAddress,\r\n        address _tokenSellerAddress,\r\n        address _daoAddress\r\n    ) external;\r\n\r\n    function claimStakingReward(uint256 amount) external;\r\n\r\n    function fundDAO() external;\r\n\r\n    function sellTokenForLRC(address token, uint256 amount) external;\r\n\r\n    function getProtocolFeeStats()\r\n        public\r\n        view\r\n        returns (\r\n            uint256 accumulatedFees,\r\n            uint256 accumulatedBurn,\r\n            uint256 accumulatedDAOFund,\r\n            uint256 accumulatedReward,\r\n            uint256 remainingFees,\r\n            uint256 remainingBurn,\r\n            uint256 remainingDAOFund,\r\n            uint256 remainingReward\r\n        );\r\n}\r\n\r\ncontract IUserStakingPool {\r\n    uint256 public constant MIN_CLAIM_DELAY = 90 days;\r\n    uint256 public constant MIN_WITHDRAW_DELAY = 90 days;\r\n\r\n    address public lrcAddress;\r\n    address public protocolFeeVaultAddress;\r\n\r\n    uint256 public numAddresses;\r\n\r\n    event ProtocolFeeVaultChanged(address feeVaultAddress);\r\n\r\n    event LRCStaked(address indexed user, uint256 amount);\r\n    event LRCWithdrawn(address indexed user, uint256 amount);\r\n    event LRCRewarded(address indexed user, uint256 amount);\r\n\r\n    function setProtocolFeeVault(address _protocolFeeVaultAddress) external;\r\n\r\n    function getTotalStaking() public view returns (uint256);\r\n\r\n    function getUserStaking(address user)\r\n        public\r\n        view\r\n        returns (\r\n            uint256 withdrawalWaitTime,\r\n            uint256 rewardWaitTime,\r\n            uint256 balance,\r\n            uint256 pendingReward\r\n        );\r\n\r\n    function stake(uint256 amount) external;\r\n\r\n    function withdraw(uint256 amount) external;\r\n\r\n    function claim() external returns (uint256 claimedAmount);\r\n}\r\n\r\ncontract UserStakingPool is Claimable, ReentrancyGuard, IUserStakingPool {\r\n    using ERC20SafeTransfer for address;\r\n    using MathUint for uint256;\r\n\r\n    struct Staking {\r\n        uint256 balance;\r\n        uint64 depositedAt;\r\n        uint64 claimedAt;\r\n    }\r\n\r\n    Staking public total;\r\n    mapping(address => Staking) public stakings;\r\n\r\n    constructor(address _lrcAddress) public Claimable() {\r\n        require(_lrcAddress != address(0), \"ZERO_ADDRESS\");\r\n        lrcAddress = _lrcAddress;\r\n    }\r\n\r\n    function setProtocolFeeVault(address _protocolFeeVaultAddress)\r\n        external\r\n        nonReentrant\r\n        onlyOwner\r\n    {\r\n        protocolFeeVaultAddress = _protocolFeeVaultAddress;\r\n        emit ProtocolFeeVaultChanged(protocolFeeVaultAddress);\r\n    }\r\n\r\n    function getTotalStaking() public view returns (uint256) {\r\n        return total.balance;\r\n    }\r\n\r\n    function getUserStaking(address user)\r\n        public\r\n        view\r\n        returns (\r\n            uint256 withdrawalWaitTime,\r\n            uint256 rewardWaitTime,\r\n            uint256 balance,\r\n            uint256 pendingReward\r\n        )\r\n    {\r\n        withdrawalWaitTime = getUserWithdrawalWaitTime(user);\r\n        rewardWaitTime = getUserClaimWaitTime(user);\r\n        balance = stakings[user].balance;\r\n        (, , pendingReward) = getUserPendingReward(user);\r\n    }\r\n\r\n    function stake(uint256 amount) external nonReentrant {\r\n        require(amount > 0, \"ZERO_VALUE\");\r\n\r\n        lrcAddress.safeTransferFromAndVerify(msg.sender, address(this), amount);\r\n\r\n        Staking storage user = stakings[msg.sender];\r\n\r\n        if (user.balance == 0) {\r\n            numAddresses += 1;\r\n        }\r\n\r\n        uint256 balance = user.balance.add(amount);\r\n\r\n        user.depositedAt = uint64(\r\n            user.balance.mul(user.depositedAt).add(amount.mul(now)) / balance\r\n        );\r\n\r\n        user.claimedAt = uint64(\r\n            user.balance.mul(user.claimedAt).add(amount.mul(now)) / balance\r\n        );\r\n\r\n        user.balance = balance;\r\n\r\n        balance = total.balance.add(amount);\r\n\r\n        total.claimedAt = uint64(\r\n            total.balance.mul(total.claimedAt).add(amount.mul(now)) / balance\r\n        );\r\n\r\n        total.balance = balance;\r\n\r\n        emit LRCStaked(msg.sender, amount);\r\n    }\r\n\r\n    function withdraw(uint256 amount) external nonReentrant {\r\n        require(getUserWithdrawalWaitTime(msg.sender) == 0, \"NEED_TO_WAIT\");\r\n\r\n        if (\r\n            protocolFeeVaultAddress != address(0) &&\r\n            getUserClaimWaitTime(msg.sender) == 0\r\n        ) {\r\n            claimReward();\r\n        }\r\n\r\n        Staking storage user = stakings[msg.sender];\r\n\r\n        uint256 _amount = (amount == 0 || amount > user.balance)\r\n            ? user.balance\r\n            : amount;\r\n        require(_amount > 0, \"ZERO_BALANCE\");\r\n\r\n        total.balance = total.balance.sub(_amount);\r\n        user.balance = user.balance.sub(_amount);\r\n\r\n        if (user.balance == 0) {\r\n            numAddresses -= 1;\r\n            delete stakings[msg.sender];\r\n        }\r\n\r\n        lrcAddress.safeTransferAndVerify(msg.sender, _amount);\r\n\r\n        emit LRCWithdrawn(msg.sender, _amount);\r\n    }\r\n\r\n    function claim() external nonReentrant returns (uint256 claimedAmount) {\r\n        return claimReward();\r\n    }\r\n\r\n    function claimReward() private returns (uint256 claimedAmount) {\r\n        require(protocolFeeVaultAddress != address(0), \"ZERO_ADDRESS\");\r\n        require(getUserClaimWaitTime(msg.sender) == 0, \"NEED_TO_WAIT\");\r\n\r\n        uint256 totalPoints;\r\n        uint256 userPoints;\r\n\r\n        (totalPoints, userPoints, claimedAmount) = getUserPendingReward(\r\n            msg.sender\r\n        );\r\n\r\n        if (claimedAmount > 0) {\r\n            IProtocolFeeVault(protocolFeeVaultAddress).claimStakingReward(\r\n                claimedAmount\r\n            );\r\n\r\n            total.balance = total.balance.add(claimedAmount);\r\n\r\n            total.claimedAt = uint64(\r\n                now.sub(totalPoints.sub(userPoints) / total.balance)\r\n            );\r\n\r\n            Staking storage user = stakings[msg.sender];\r\n            user.balance = user.balance.add(claimedAmount);\r\n            user.claimedAt = uint64(now);\r\n        }\r\n        emit LRCRewarded(msg.sender, claimedAmount);\r\n    }\r\n\r\n    function getUserWithdrawalWaitTime(address user)\r\n        private\r\n        view\r\n        returns (uint256)\r\n    {\r\n        uint256 depositedAt = stakings[user].depositedAt;\r\n        if (depositedAt == 0) {\r\n            return MIN_WITHDRAW_DELAY;\r\n        } else {\r\n            uint256 time = depositedAt + MIN_WITHDRAW_DELAY;\r\n            return (time <= now) ? 0 : time.sub(now);\r\n        }\r\n    }\r\n\r\n    function getUserClaimWaitTime(address user) private view returns (uint256) {\r\n        uint256 claimedAt = stakings[user].claimedAt;\r\n        if (claimedAt == 0) {\r\n            return MIN_CLAIM_DELAY;\r\n        } else {\r\n            uint256 time = stakings[user].claimedAt + MIN_CLAIM_DELAY;\r\n            return (time <= now) ? 0 : time.sub(now);\r\n        }\r\n    }\r\n\r\n    function getUserPendingReward(address user)\r\n        private\r\n        view\r\n        returns (uint256 totalPoints, uint256 userPoints, uint256 pendingReward)\r\n    {\r\n        Staking storage staking = stakings[user];\r\n\r\n        totalPoints = total.balance.mul(now.sub(total.claimedAt).add(1));\r\n        userPoints = staking.balance.mul(now.sub(staking.claimedAt));\r\n\r\n        if (totalPoints < userPoints) {\r\n            userPoints = totalPoints;\r\n        }\r\n\r\n        if (\r\n            protocolFeeVaultAddress != address(0) &&\r\n            totalPoints != 0 &&\r\n            userPoints != 0\r\n        ) {\r\n            (, , , , , , , pendingReward) = IProtocolFeeVault(\r\n                protocolFeeVaultAddress\r\n            )\r\n                .getProtocolFeeStats();\r\n            pendingReward = pendingReward.mul(userPoints) / totalPoints;\r\n        }\r\n    }\r\n}\r\n",
  "sourcePath": "C:\\Users\\aciur\\Documents\\Projects\\ethereum\\loopring-staking\\eth\\contracts\\LRC_UserStakingPool.sol",
  "compiler": {
    "name": "solc",
    "version": "0.5.16+commit.9c3226ce.Emscripten.clang"
  },
  "schemaVersion": "3.0.23",
  "updatedAt": "2020-05-16T20:13:47.093Z",
  "networkType": "ethereum",
  "devdoc": {
    "methods": {}
  },
  "userdoc": {
    "methods": {}
  }
}